:100000000C9463000C948B000C948B000C94AC0447
:100010000C94AC040C94AC040C948B000C948B00EA
:100020000C948B000C948B000C948B000C948B0024
:100030000C948B000C948B000C948B000C948B0014
:100040000C9462040C948B000C9430040C940A04FD
:100050000C948B000C948B000C948B000C948B00F4
:100060000C948B000C948B0000000008000201002F
:100070000003040700000000000000000000000072
:10008000250028002B0000000000240027002A0083
:1000900000000000230026002900040404040404D6
:1000A0000404020202020202030303030303010227
:1000B00004081020408001020408102001020408F6
:1000C000102026058E0811241FBECFEFD8E0DEBF1A
:1000D000CDBF11E0A0E0B1E0E0E6F8E102C005909C
:1000E0000D92A837B107D9F722E0A8E7B1E001C027
:1000F0001D92A538B207E1F710E0C2E6D0E004C0D7
:100100002197FE010E94F709C136D107C9F70E9465
:1001100008060C94230C0C9400000895CF92DF92F3
:10012000EF92FF920F931F93CF93DF936C017A01AD
:100130008B01C0E0D0E0CE15DF0589F0D8016D91CC
:100140008D01D601ED91FC910190F081E02DC60169
:100150000995892B11F47E0102C02196ECCFC701CD
:10016000DF91CF911F910F91FF90EF90DF90CF9093
:100170000895FC01538D448D252F30E0842F90E0AD
:10018000821B930B541710F0CF9608950197089592
:10019000FC01918D828D981761F0828DDF01A80F8F
:1001A000B11D5D968C91928D9F5F9F73928F90E0B1
:1001B00008958FEF9FEF0895FC01918D828D981720
:1001C00031F0828DE80FF11D858D90E008958FEF5D
:1001D0009FEF0895FC01918D228D892F90E0805C26
:1001E0009F4F821B91098F739927089585EC91E0A9
:1001F0000E94EA0021E0892B09F420E0822F089573
:10020000FC01848DDF01A80FB11DA35ABF4F2C91B3
:10021000848D90E001968F739927848FA689B78982
:100220002C93A089B1898C9180648C93938D848D5B
:10023000981306C00288F389E02D80818F7D80832A
:100240000895EF92FF920F931F93CF93DF93EC01EA
:1002500081E0888F9B8D8C8D981305C0E889F98982
:10026000808185FD24C0F62E0B8D10E00F5F1F4F9F
:100270000F731127E02E8C8DE8120CC00FB607FC0F
:10028000FACFE889F989808185FFF5CFCE010E94F8
:100290000001F1CF8B8DFE01E80FF11DE35AFF4FF6
:1002A000F0820B8FEA89FB898081806207C0EE892A
:1002B000FF896083E889F98980818064808381E097
:1002C00090E0DF91CF911F910F91FF90EF900895F3
:1002D000CF93DF93EC01888D8823C9F0EA89FB89ED
:1002E000808185FD05C0A889B9898C9186FD0FC0E4
:1002F0000FB607FCF5CF808185FFF2CFA889B989B9
:100300008C9185FFEDCFCE010E940001E7CFDF91F8
:10031000CF91089580E090E0892B29F00E94F600AB
:1003200081110C940000089590E0FC01E859FF4F02
:100330003491FC01E255FF4F2491FC01E656FF4F3A
:10034000E491EE2309F43BC0332339F1333091F0CB
:1003500038F43130A9F0323001F584B58F7D12C008
:10036000373091F03830A1F03430B9F4809180000A
:100370008F7D03C0809180008F77809380000DC0B7
:1003800084B58F7784BD09C08091B0008F7703C09A
:100390008091B0008F7D8093B000F0E0EE0FFF1FE2
:1003A000E458FF4FA591B4918FB7F894EC91611187
:1003B00003C020952E2301C02E2B2C938FBF0895B0
:1003C0003FB7F8948091BD019091BE01A091BF010B
:1003D000B091C00126B5A89B05C02F3F19F001962A
:1003E000A11DB11D3FBFBA2FA92F982F8827820FBB
:1003F000911DA11DB11DBC01CD0142E0660F771F0B
:10040000881F991F4A95D1F708958F929F92AF92B6
:10041000BF92CF92DF92EF92FF926B017C010E941C
:10042000E0014B015C01C114D104E104F104F1F0DD
:100430000E94E001DC01CB0188199909AA09BB09D6
:10044000883E9340A105B10570F321E0C21AD1089E
:10045000E108F10888EE880E83E0981EA11CB11C0B
:10046000C114D104E104F10419F7DDCFFF90EF903E
:10047000DF90CF90BF90AF909F908F900895209184
:10048000C3013091C4012817390771F49091C1015B
:100490008091C201981741F0E091C101F0E0E85865
:1004A000FE4F808190E008958FEF9FEF08950895AB
:1004B0001F93CF93DF93DC015C962D913C915D9768
:1004C0002115310539F481E090E013969C938E93C9
:1004D00012973DC05196ED91FC91529750969C9188
:1004E0005097892F80951FB75E964C915E9741FB80
:1004F000772770F941FD6095F8944081772311F0DA
:10050000492B01C048234083E9012197F1F748E0D6
:10051000508160FF02C0592B01C058235083E9016C
:100520002197F1F76695415099F7772321F0908153
:100530008923808303C08081982B90831FBF5C96A2
:100540008D919C915D970197F1F721E030E0C90111
:10055000DF91CF911F9108952091C3013091C40183
:100560002817390771F48091C2012091C10190E0F0
:10057000805C9F4F821B910960E470E00E94CF096C
:10058000089580E090E008952091C3013091C40166
:1005900028173907B9F49091C1018091C2019817C9
:1005A00089F0E091C101F0E0E858FE4F8081209190
:1005B000C10130E02F5F3F4F2F7333272093C101DC
:1005C00090E008958FEF9FEF0895E091C301F091BF
:1005D000C401E817F90769F4A389B4899C91858956
:1005E000809589238C931092C4011092C30181E0FD
:1005F000089580E00895089580E090E00895CF93F5
:10060000DF93FC0124813581232B71F0FB01DC0198
:10061000CD91DC9160817181CE010E94090C00971F
:1006200019F08C1B9D0B02C08FEF9FEFDF91CF91D4
:1006300008956115710579F0FB0101900020E9F73B
:100640003197AF01461B570BDC01ED91FC91028005
:10065000F381E02D099480E090E008950F931F93BB
:10066000CF93DF93EC01E881F981DB0114964D9182
:100670005C9115976D917C910280F381E02D099535
:100680008C016EE271E0CE010E941903800F911F70
:10069000DF91CF911F910F9108950F931F93CF93E7
:1006A000DF93EC0188819981009729F02A813B81B1
:1006B0002617370788F48B016F5F7F4F0E942A0B44
:1006C000009761F0998388831B830A832C813D8185
:1006D000232B11F4FC01108281E001C080E0DF9146
:1006E000CF911F910F910895EF92FF920F931F9357
:1006F000CF93DF93FC01248135816115710511F4DD
:1007000080E019C041155105A9F07B01EC018A0177
:10071000020F131FB8010E944D03882389F328811B
:1007200039818C819D81B701820F931F0E94020C39
:100730001D830C8381E0DF91CF911F910F91FF907A
:10074000EF900895CF93DF93EC0188819981009712
:1007500011F00E94920A198218821D821C821B824B
:100760001A82DF91CF910895CF93DF93EC01611549
:10077000710561F0FB0101900020E9F73197AF01AD
:10078000461B570B0E947403811103C0CE010E94C7
:10079000A203CE01DF91CF910895EF92FF920F93C4
:1007A0001F93CF93DF93EC017B018A01BA010E9472
:1007B0004D03811104C0CE010E94A20307C01D8316
:1007C0000C83B701888199810E94020CCE01DF91D0
:1007D000CF911F910F91FF90EF900895FC0111822E
:1007E000108213821282158214826115710551F0F4
:1007F000FB0101900020E9F73197AF01461B570B31
:100800000C94CD030895FC01808191810C94920A8F
:100810000E94F40B1F920F920FB60F9211242F9388
:100820003F934F935F936F937F938F939F93AF9378
:10083000BF93EF93FF9385EC91E00E940001FF913D
:10084000EF91BF91AF919F918F917F916F915F9148
:100850004F913F912F910F900FBE0F901F901895C1
:100860001F920F920FB60F9211242F938F939F9385
:10087000EF93FF93E091D501F091D6018081E09153
:10088000DB01F091DC0182FD12C090818091DE01DC
:100890008F5F8F732091DF01821751F0E091DE01AD
:1008A000F0E0EB53FE4F958F8093DE0101C0808115
:1008B000FF91EF919F918F912F910F900FBE0F900D
:1008C0001F9018951F920F920FB60F9211242F931D
:1008D0003F938F939F93AF93BF938091B901909172
:1008E000BA01A091BB01B091BC013091B80123E0E5
:1008F000230F2D3720F40196A11DB11D05C026E858
:10090000230F0296A11DB11D2093B8018093B90158
:100910009093BA01A093BB01B093BC018091BD013B
:100920009091BE01A091BF01B091C0010196A11D9F
:10093000B11D8093BD019093BE01A093BF01B09300
:10094000C001BF91AF919F918F913F912F910F90D7
:100950000FBE0F901F9018951F920F920FB60F9217
:1009600011242F933F934F935F936F937F938F93B4
:100970009F93AF93BF93EF93FF93E091C301F091E7
:10098000C401309709F451C0968DA685B785858539
:1009900091FF04C09C91892329F447C09C9189232D
:1009A00009F043C0A389B4899C91858980958923E6
:1009B0008C93868997890197F1F7608D718DA68553
:1009C000B785558538E020E0CB010197F1F7822FFC
:1009D00090E095958795282F4C91452309F0206844
:1009E000315091F7868D81FD20958091C20190E074
:1009F00001968F7399273091C101381749F0A09162
:100A0000C201B0E0A858BE4F2C938093C20103C02E
:100A1000868D8160868F828D938D0197F1F7A389F2
:100A2000B4899C918589892B8C93FF91EF91BF911B
:100A3000AF919F918F917F916F915F914F913F9176
:100A40002F910F900FBE0F901F901895CF93DF93AB
:100A50001092C8011092C70188EE93E0A0E0B0E0C8
:100A60008093C9019093CA01A093CB01B093CC01AC
:100A70002EE031E03093C6012093C50125EC30E033
:100A80003093D2012093D10124EC30E03093D40193
:100A90002093D30120EC30E03093D6012093D50190
:100AA00021EC30E03093D8012093D70122EC30E0E4
:100AB0003093DA012093D90126EC30E03093DC0149
:100AC0002093DB011092DE011092DF011092E00111
:100AD0001092E10110926502109264028093660206
:100AE00090936702A0936802B093690280E291E05C
:100AF00090936302809362021092790210927802BE
:100B000010927B0210927A0210927D0210927C0267
:100B100010927F0210927E02609180026E7F6D7F44
:100B2000609380026695617081E0682783E00E948F
:100B30009401E1EBF0E02491EDE9F0E08491882369
:100B400099F090E0880F991FFC01EA57FF4FA5919B
:100B5000B491FC01E458FF4F859194918FB7F894BC
:100B6000EC91E22BEC938FBFE1EBF0E0E491E093AA
:100B70007202EDE9F0E0E491F0E0EE0FFF1FE458BF
:100B8000FF4F859194919093740280937302E0EBF0
:100B9000F0E02491ECE9F0E084918823C1F090E04A
:100BA000880F991FFC01EA57FF4FC591D491FC01B2
:100BB000E458FF4FA591B4919FB7F8948881E22F34
:100BC000E0958E2388838C91E823EC939FBF8091DE
:100BD000800281FD04C061E082E00E94940182E015
:100BE00080936E02E0EBF0E0E491E0936F02ECE9B9
:100BF000F0E0E491F0E0EE0FFF1FE057FF4F85912A
:100C000094919093710280937002DF91CF91089537
:100C1000CF93DF93CDB7DEB7EA970FB6F894DEBF78
:100C20000FBECDBF789484B5826084BD84B58160E9
:100C300084BD85B5826085BD85B5816085BD8091A7
:100C40006E00816080936E0010928100809181001F
:100C50008260809381008091810081608093810017
:100C6000809180008160809380008091B1008460D9
:100C70008093B1008091B00081608093B00080913A
:100C80007A00846080937A0080917A0082608093F9
:100C90007A0080917A00816080937A0080917A0056
:100CA000806880937A001092C100E091D501F091A4
:100CB000D60182E08083E091D101F091D2011082CF
:100CC000E091D301F091D4018FEC80831092DD018B
:100CD000E091D901F091DA0186E08083E091D701BB
:100CE000F091D801808180618083E091D701F091FB
:100CF000D801808188608083E091D701F091D8018C
:100D0000808180688083E091D701F091D801808153
:100D10008F7D808310927D0210927C0210927B0264
:100D200010927A0210927902109278028DE991E085
:100D300090937F0280937E0290916E02963108F02C
:100D400057C02DEB30E030937902209378022BE9E5
:100D500031E030937B0220937A022CE231E0309331
:100D60007D0220937C0220916800983050F031E0A1
:100D70009E3008F430E081E001C0880F3A95EAF730
:100D800001C084E0822B80936800983038F09E3058
:100D900040F0963148F020E030E008C02DE630E029
:100DA00005C02BE630E002C02CE630E0309376023E
:100DB00020937502983030F481E001C0880F9A9535
:100DC000EAF70EC0292F30E09E3018F42850310980
:100DD00002C02E50310981E001C0880F2A95EAF740
:100DE0008093770280917E0290917F020197F1F7C4
:100DF00080917C0290917D02892B21F18091C30129
:100E00009091C40122E082369207E1F0009711F040
:100E10000E94E502809180028E7F80938002109272
:100E2000C2011092C10182E692E09093C4018093C6
:100E3000C301E0917502F091760290818091770272
:100E4000892B808361E371E085EC91E00E941903B6
:100E50006EE271E085EC91E00E94190361E371E0BC
:100E600082E692E00E941903412C512C32015394E6
:100E70007E018FE2E80EF11C8E010F5F1F4F91E3A0
:100E8000392E60E371E0CE01C5960E94EE030E9408
:100E9000E608A30192010E9435094B015C0160E361
:100EA00071E0C7010E94EE0368E873E180E090E022
:100EB0000E94050260E371E0C8010E94EE0382E631
:100EC00092E00E94AC02892B29F48DA99EA900977B
:100ED000E9F432C082E692E00E94AC0218161906CC
:100EE000A4F782E692E00E94C4028BA31CA241E018
:100EF00050E0BE016D5D7F4FC8010E9474036AE03F
:100F000070E080E090E00E940502E4CF29813A8100
:100F10002115310579F06FA978AD4D815E81641797
:100F2000750740F0B9010E94020C8D819E819AAF35
:100F300089AF12C00E94920A89819A819EAB8DABC3
:100F40008B819C8198AF8FAB8D819E819AAF89AF49
:100F50001A8219821C821B821E821D82C8010E9475
:100F6000030489AD9AAD892B61F0EDA9FEA98081BA
:100F7000882339F0BE016B5C7F4F85EC91E00E94C5
:100F80002E0360E471E0C8010E94EE03B801CE01B7
:100F9000C5960E94FF026C01C8010E940304CD2087
:100FA000C09491F466E471E0C8010E94EE03B801B8
:100FB000CE01C5960E94FF026C01C8010E94030485
:100FC000CD20C09409F09DC01CA21BA21EA21DA290
:100FD00018A61FA22AE0A801C501B4010E94F408C6
:100FE000F80101900020E9F73197AF01401B510B48
:100FF000B801CE0183960E94CD031AA619A61CA69D
:101000001BA61EA61DA639821A82F8010190002097
:10101000E9F73197AF01401B510BB801CE0189961A
:101020000E94CD031A8219821C821B821E821D829D
:1010300069A57AA56115710531F04DA55EA5C801B8
:101040000E94CD0303C0C8010E94A2036AE471E0BC
:10105000C8010E94B4036C014FA158A56BA17CA1EB
:101060000E947403811103C0C6010E94A2036CE4B4
:1010700071E0C6010E94B4038E159F0579F0FC0152
:10108000608171816115710531F044815581C7011D
:101090000E94CD0303C0C7010E94A203C8010E94A1
:1010A0000304CE0189960E940304CE0183960E9418
:1010B00003046EE471E0C8010E94EE034BA95CA931
:1010C0006FA578A9C8010E947403811103C0C801EB
:1010D0000E94A203B80185EC91E00E942E03C80192
:1010E0000E940304B70182E692E00E942E03C7012A
:1010F0000E940304CE01C5960E9403040E948A0147
:10110000C0CE6BE571E085EC91E00E9419036EE2C0
:1011100071E085EC91E00E941903E9CF80E291E053
:10112000909363028093620282E692E00C94E5025F
:101130008F929F92AF92BF92CF92DF92EF92FF92E7
:10114000CF93DF93EC01688179818A819B8161155E
:1011500071058105910521F464E279ED8BE597E055
:101160002DE133EF41E050E00E94350949015A0179
:101170009B01AC01A7EAB1E40E9454096B017C0118
:10118000ACEEB4EFA50194010E946209DC01CB0131
:101190008C0D9D1DAE1DBF1DB7FF03C00197A1099A
:1011A000B04888839983AA83BB83BC01CD019F7714
:1011B000DF91CF91FF90EF90DF90CF90BF90AF90F5
:1011C0009F908F9008950E949808089580E091E084
:1011D0000E94980808956093000170930101809324
:1011E0000201909303010895BB272A3051F49923FB
:1011F00042F4BDE290958095709561957F4F8F4F39
:101200009F4F0C940409BB27FA01A62F62177105A2
:1012100081059105330B30FB66F0AA27660F771F17
:10122000881F991FAA1FA21710F0A21B63953850A0
:10123000A9F7A05DAA3308F0A95DA19336F7B11113
:10124000B1931082CA010C942509DC01FC01672FBF
:1012500071917723E1F7329704C07C916D9370838D
:101260006291AE17BF07C8F30895052E97FB1EF4D1
:1012700000940E944C0957FD07D00E949E0907FC6C
:1012800003D04EF40C944C0950954095309521951F
:101290003F4F4F4F5F4F08959095809570956195A2
:1012A0007F4F8F4F9F4F08950E94C009A59F900DBB
:1012B000B49F900DA49F800D911D11240895B7FF38
:1012C0000C9454090E945409821B930B08952F9289
:1012D0003F924F925F926F927F928F929F92AF92C6
:1012E000BF92CF92DF92EF92FF920F931F93CF9313
:1012F000DF93CDB7DEB7CA1BDB0B0FB6F894DEBFAA
:101300000FBECDBF09942A88398848885F846E84CF
:101310007D848C849B84AA84B984C884DF80EE8019
:10132000FD800C811B81AA81B981CE0FD11D0FB622
:10133000F894DEBF0FBECDBFED010895A1E21A2ED5
:10134000AA1BBB1BFD010DC0AA1FBB1FEE1FFF1F69
:10135000A217B307E407F50720F0A21BB30BE40BB9
:10136000F50B661F771F881F991F1A9469F7609500
:101370007095809590959B01AC01BD01CF010895BA
:10138000A29FB001B39FC001A39F700D811D1124C6
:10139000911DB29F700D811D1124911D089597FB21
:1013A000072E16F4009407D077FD09D00E94E309B8
:1013B00007FC05D03EF4909581959F4F0895709558
:1013C00061957F4F0895AA1BBB1B51E107C0AA1F5F
:1013D000BB1FA617B70710F0A61BB70B881F991FD6
:1013E0005A95A9F780959095BC01CD010895EE0F0F
:1013F000FF1F0590F491E02D0994CF93DF93823085
:10140000910510F482E090E0E0918302F091840273
:1014100020E030E0C0E0D0E0309711F14081518110
:1014200048175907C0F04817590761F48281938122
:10143000209719F09B838A832BC09093840280931A
:10144000830226C02115310519F04217530718F4FD
:101450009A01BE01DF01EF010280F381E02DDCCFB4
:101460002115310509F1281B390B2430310590F481
:1014700012968D919C9113976115710521F0FB01D6
:101480009383828304C09093840280938302FD013E
:10149000329644C0FD01E20FF31F819391932250D5
:1014A00031092D933C933AC0209181023091820200
:1014B000232B41F4209106013091070130938202E1
:1014C00020938102209104013091050121153105FD
:1014D00041F42DB73EB74091080150910901241BFA
:1014E000350BE0918102F0918202E217F307A0F43C
:1014F0002E1B3F0B2817390778F0AC014E5F5F4F6A
:101500002417350748F04E0F5F1F50938202409317
:1015100081028193919302C0E0E0F0E0CF01DF917E
:10152000CF9108950F931F93CF93DF93009709F402
:101530008CC0FC01329713821282009183021091B9
:1015400084020115110581F420813181820F931FDE
:1015500020918102309182022817390779F5F093A2
:101560008202E093810271C0D80140E050E0AE17E2
:10157000BF0750F412962D913C911397AD012115A0
:10158000310509F1D901F3CF9D01DA0133832283BB
:1015900060817181860F971F8217930769F4EC01B0
:1015A00028813981260F371F2E5F3F4F31832083DB
:1015B0008A819B8193838283452B29F4F093840253
:1015C000E093830242C01396FC93EE931297ED01D1
:1015D000499159919E01240F351FE217F30771F4C9
:1015E00080819181840F951F029611969C938E9312
:1015F0008281938113969C938E931297E0E0F0E0A2
:10160000D80112968D919C911397009719F0F801CB
:101610008C01F6CF8D919C9198012E5F3F4F820FE8
:10162000931F20918102309182022817390769F4B3
:10163000309729F4109284021092830202C0138220
:1016400012821093820200938102DF91CF911F9149
:101650000F910895A0E0B0E0E0E3FBE00C946B098B
:10166000EC01009721F4CB010E94FD09B8C0FC01F8
:10167000E60FF71F9C0122503109E217F30708F427
:10168000ACC0D9010D911C91119706171707B0F046
:101690000530110508F49FC0C80104978617970705
:1016A00008F499C002501109061B170B01931193FE
:1016B0006D937C93CF010E94920A8DC05B01A01AAA
:1016C000B10A4C01800E911EA0918302B091840258
:1016D00040E050E0E12CF12C109709F44AC0A81525
:1016E000B905D1F56D907C901197630182E0C80E29
:1016F000D11CCA14DB0480F1A3014A195B096A01F9
:1017000082E0C80ED11C1296BC9012971396AC9131
:10171000B5E0CB16D10440F0B282A383518340835D
:10172000D9016D937C930AC00E5F1F4FC301800FD8
:10173000911FF90191838083EB2DFA2FE114F104BD
:1017400031F0D7011396FC93EE93129744C0F093B7
:101750008402E09383023FC08D919C9111974817BA
:10176000590708F4AC017D0112960D90BC91A02D93
:10177000B3CF809181029091820288159905E1F49E
:1017800046175707C8F4809104019091050100970E
:1017900041F48DB79EB74091080150910901841B17
:1017A000950BE817F907C8F4F0938202E0938102E1
:1017B000F901718360830FC0CB010E94FD097C0198
:1017C000009759F0A801BE010E94F90BCE010E94BA
:1017D000920AC70104C0CE0102C080E090E0CDB7FC
:1017E000DEB7EEE00C94870981E090E0F8940C9469
:1017F000230CFB01DC0102C001900D9241505040CE
:10180000D8F70895FB01DC0101900D920020E1F76B
:101810000895FB0151915523A9F0BF01DC014D91C1
:1018200045174111E1F759F4CD010190002049F02D
:101830004D9140154111C9F3FB014111EFCF81E0FA
:1018400090E00197089510E0C2E6D0E004C0FE01E8
:101850000E94F7092196C336D107C9F7F894FFCF44
:10186000010000000000850280000000000021014E
:101870008E00B9006801EA00C800DC00000000002A
:1018800058028E00FC025702AC02C4023F020D0A4D
:101890000041726475696E6F2052656164792E0033
:1018A00048656C6C6F00427965002C003B00536505
:1018B0006E642064617461203A20006E6F7420634E
:1018C0006F6E6E65637420746F2052617370626511
:0818D0007272792050690000DA
:00000001FF
