:100000000C9463000C948B000C948B000C94D20421
:100010000C94D2040C94D2040C948B000C948B009E
:100020000C948B000C948B000C948B000C948B0024
:100030000C948B000C948B000C948B000C948B0014
:100040000C9488040C948B000C9456040C9430048B
:100050000C948B000C948B000C948B000C948B00F4
:100060000C948B000C948B0000000008000201002F
:100070000003040700000000000000000000000072
:10008000250028002B0000000000240027002A0083
:1000900000000000230026002900040404040404D6
:1000A0000404020202020202030303030303010227
:1000B00004081020408001020408102001020408F6
:1000C00010204C05AE0811241FBECFEFD8E0DEBFD4
:1000D000CDBF11E0A0E0B1E0E0EAF8E102C0059098
:1000E0000D92A639B107D9F722E0A6E9B1E001C027
:1000F0001D92A43AB207E1F710E0C2E6D0E004C0D6
:100100002197FE010E94170AC136D107C9F70E9444
:100110002E060C94430C0C9400000895CF92DF92AD
:10012000EF92FF920F931F93CF93DF936C017A01AD
:100130008B01C0E0D0E0CE15DF0589F0D8016D91CC
:100140008D01D601ED91FC910190F081E02DC60169
:100150000995892B11F47E0102C02196ECCFC701CD
:10016000DF91CF911F910F91FF90EF90DF90CF9093
:100170000895FC01538D448D252F30E0842F90E0AD
:10018000821B930B541710F0CF9608950197089592
:10019000FC01918D828D981761F0828DDF01A80F8F
:1001A000B11D5D968C91928D9F5F9F73928F90E0B1
:1001B00008958FEF9FEF0895FC01918D828D981720
:1001C00031F0828DE80FF11D858D90E008958FEF5D
:1001D0009FEF0895FC01918D228D892F90E0805C26
:1001E0009F4F821B91098F739927089584EE91E0A8
:1001F0000E94EA0021E0892B09F420E0822F089573
:10020000FC01848DDF01A80FB11DA35ABF4F2C91B3
:10021000848D90E001968F739927848FA689B78982
:100220002C93A089B1898C9180648C93938D848D5B
:10023000981306C00288F389E02D80818F7D80832A
:100240000895EF92FF920F931F93CF93DF93EC01EA
:1002500081E0888F9B8D8C8D981305C0E889F98982
:10026000808185FD24C0F62E0B8D10E00F5F1F4F9F
:100270000F731127E02E8C8DE8120CC00FB607FC0F
:10028000FACFE889F989808185FFF5CFCE010E94F8
:100290000001F1CF8B8DFE01E80FF11DE35AFF4FF6
:1002A000F0820B8FEA89FB898081806207C0EE892A
:1002B000FF896083E889F98980818064808381E097
:1002C00090E0DF91CF911F910F91FF90EF900895F3
:1002D000CF93DF93EC01888D8823C9F0EA89FB89ED
:1002E000808185FD05C0A889B9898C9186FD0FC0E4
:1002F0000FB607FCF5CF808185FFF2CFA889B989B9
:100300008C9185FFEDCFCE010E940001E7CFDF91F8
:10031000CF91089580E090E0892B29F00E94F600AB
:1003200081110C940000089590E0FC01E859FF4F02
:100330003491FC01E255FF4F2491FC01E656FF4F3A
:10034000E491EE2309F43BC0332339F1333091F0CB
:1003500038F43130A9F0323001F584B58F7D12C008
:10036000373091F03830A1F03430B9F4809180000A
:100370008F7D03C0809180008F77809380000DC0B7
:1003800084B58F7784BD09C08091B0008F7703C09A
:100390008091B0008F7D8093B000F0E0EE0FFF1FE2
:1003A000E458FF4FA591B4918FB7F894EC91611187
:1003B00003C020952E2301C02E2B2C938FBF0895B0
:1003C0003FB7F8948091DB019091DC01A091DD01B1
:1003D000B091DE0126B5A89B05C02F3F19F001960C
:1003E000A11DB11D3FBFBA2FA92F982F8827820FBB
:1003F000911DA11DB11DBC01CD0142E0660F771F0B
:10040000881F991F4A95D1F708958F929F92AF92B6
:10041000BF92CF92DF92EF92FF926B017C010E941C
:10042000E0014B015C01C114D104E104F104F1F0DD
:100430000E94E001DC01CB0188199909AA09BB09D6
:10044000883E9340A105B10570F321E0C21AD1089E
:10045000E108F10888EE880E83E0981EA11CB11C0B
:10046000C114D104E104F10419F7DDCFFF90EF903E
:10047000DF90CF90BF90AF909F908F900895209184
:10048000E1013091E2012817390771F49091DF0101
:100490008091E001981741F0E091DF01F0E0EA5629
:1004A000FE4F808190E008958FEF9FEF08950895AB
:1004B0001F93CF93DF93DC015C962D913C915D9768
:1004C0002115310539F481E090E013969C938E93C9
:1004D00012973DC05196ED91FC91529750969C9188
:1004E0005097892F80951FB75E964C915E9741FB80
:1004F000772770F941FD6095F8944081772311F0DA
:10050000492B01C048234083E9012197F1F748E0D6
:10051000508160FF02C0592B01C058235083E9016C
:100520002197F1F76695415099F7772321F0908153
:100530008923808303C08081982B90831FBF5C96A2
:100540008D919C915D970197F1F721E030E0C90111
:10055000DF91CF911F9108952091E1013091E20147
:100560002817390771F48091E0012091DF0190E0B4
:10057000805C9F4F821B910960E470E00E94EF094C
:10058000089580E090E008952091E1013091E2012A
:1005900028173907B9F49091DF018091E00198178D
:1005A00089F0E091DF01F0E0EA56FE4F8081209172
:1005B000DF0130E02F5F3F4F2F7333272093DF01A0
:1005C00090E008958FEF9FEF0895E091E101F091A1
:1005D000E201E817F90769F4A389B4899C91858938
:1005E000809589238C931092E2011092E10181E0C1
:1005F000089580E00895089580E090E00895CF93F5
:10060000DF93FC0124813581232B71F0FB01DC0198
:10061000CD91DC9160817181CE010E94290C0097FF
:1006200019F08C1B9D0B02C08FEF9FEFDF91CF91D4
:1006300008956115710579F0FB0101900020E9F73B
:100640003197AF01461B570BDC01ED91FC91028005
:10065000F381E02D099480E090E008950F931F93BB
:10066000CF93DF93EC01E881F981DB0114964D9182
:100670005C9115976D917C910280F381E02D099535
:100680008C016EE271E0CE010E941903800F911F70
:10069000DF91CF911F910F910895CF93DF93BC010C
:1006A00084EE91E00E941903EC016EE271E084EEA9
:1006B00091E00E9419038C0F9D1FDF91CF91089547
:1006C0000F931F93CF93DF93EC018881998100975B
:1006D00029F02A813B812617370788F48B016F5F49
:1006E0007F4F0E944A0B009761F0998388831B8398
:1006F0000A832C813D81232B11F4FC01108281E0BF
:1007000001C080E0DF91CF911F910F910895EF928A
:10071000FF920F931F93CF93DF93FC0124813581C8
:100720006115710511F480E019C041155105A9F05A
:100730007B01EC018A01020F131FB8010E946003C4
:10074000882389F3288139818C819D81B701820FAB
:10075000931F0E94220C1D830C8381E0DF91CF91B7
:100760001F910F91FF90EF900895CF93DF93EC01CD
:1007700088819981009711F00E94B20A198218822B
:100780001D821C821B821A82DF91CF910895CF9324
:10079000DF93EC016115710561F0FB010190002010
:1007A000E9F73197AF01461B570B0E948703811170
:1007B00003C0CE010E94B503CE01DF91CF91089511
:1007C000CF93DF93EC01FB014481558160817181FE
:1007D0000E948703811103C0CE010E94B503CE01A0
:1007E000DF91CF910895EF92FF920F931F93CF93D4
:1007F000DF93EC017B018A01BA010E946003811141
:1008000004C0CE010E94B50307C01D830C83B7014D
:10081000888199810E94220CCE01DF91CF911F9196
:100820000F91FF90EF900895FC01118210821382C6
:100830001282158214826115710551F0FB0101903D
:100840000020E9F73197AF01461B570B0C94F303D7
:100850000895FC01808191810C94B20A0E94140CCD
:100860001F920F920FB60F9211242F933F934F9325
:100870005F936F937F938F939F93AF93BF93EF9308
:10088000FF9384EE91E00E940001FF91EF91BF91F0
:10089000AF919F918F917F916F915F914F913F9118
:1008A0002F910F900FBE0F901F9018951F920F92CF
:1008B0000FB60F9211242F938F939F93EF93FF9373
:1008C000E091F401F091F5018081E091FA01F0915D
:1008D000FB0182FD12C090818091FD018F5F8F73BB
:1008E0002091FE01821751F0E091FD01F0E0EC5102
:1008F000FE4F958F8093FD0101C08081FF91EF91A4
:100900009F918F912F910F900FBE0F901F90189570
:100910001F920F920FB60F9211242F933F938F9334
:100920009F93AF93BF938091D7019091D801A091ED
:10093000D901B091DA013091D60123E0230F2D3790
:1009400020F40196A11DB11D05C026E8230F0296D3
:10095000A11DB11D2093D6018093D7019093D8019A
:10096000A093D901B093DA018091DB019091DC0171
:10097000A091DD01B091DE010196A11DB11D809312
:10098000DB019093DC01A093DD01B093DE01BF9108
:10099000AF919F918F913F912F910F900FBE0F902C
:1009A0001F9018951F920F920FB60F9211242F933C
:1009B0003F934F935F936F937F938F939F93AF93E7
:1009C000BF93EF93FF93E091E101F091E201309743
:1009D00009F451C0968DA685B785858591FF04C021
:1009E0009C91892329F447C09C91892309F043C035
:1009F000A389B4899C918589809589238C93868964
:100A000097890197F1F7608D718DA685B78555851A
:100A100038E020E0CB010197F1F7822F90E0959527
:100A20008795282F4C91452309F02068315091F784
:100A3000868D81FD20958091E00190E001968F7375
:100A400099273091DF01381749F0A091E001B0E01B
:100A5000AA56BE4F2C938093E00103C0868D81601F
:100A6000868F828D938D0197F1F7A389B4899C912C
:100A70008589892B8C93FF91EF91BF91AF919F91C5
:100A80008F917F916F915F914F913F912F910F9037
:100A90000FBE0F901F901895CF93DF931092E70130
:100AA0001092E60188EE93E0A0E0B0E08093E801C8
:100AB0009093E901A093EA01B093EB012EE031E0BD
:100AC0003093E5012093E40125EC30E03093F1010F
:100AD0002093F00124EC30E03093F3012093F201F5
:100AE00020EC30E03093F5012093F40121EC30E06C
:100AF0003093F7012093F60122EC30E03093F901B6
:100B00002093F80126EC30E03093FB012093FA01AA
:100B10001092FD011092FE011092FF01109200024E
:100B20001092840210928302809385029093860231
:100B3000A0938702B093880280E291E090938202B2
:100B400080938102109298021092970210929A025A
:100B50001092990210929C0210929B0210929E0297
:100B600010929D0260919F026E7F6D7F60939F0245
:100B70006695617081E0682783E00E949401E1EB53
:100B8000F0E02491EDE9F0E08491882399F090E081
:100B9000880F991FFC01EA57FF4FA591B491FC0102
:100BA000E458FF4F859194918FB7F894EC91E22B24
:100BB000EC938FBFE1EBF0E0E491E0939102EDE97B
:100BC000F0E0E491F0E0EE0FFF1FE458FF4F859155
:100BD00094919093930280939202E0EBF0E0249141
:100BE000ECE9F0E084918823C1F090E0880F991F30
:100BF000FC01EA57FF4FC591D491FC01E458FF4F27
:100C0000A591B4919FB7F8948881E22FE0958E2347
:100C100088838C91E823EC939FBF80919F0281FD94
:100C200004C061E082E00E94940182E080938D0222
:100C3000E0EBF0E0E491E0938E02ECE9F0E0E49187
:100C4000F0E0EE0FFF1FE057FF4F859194919093D6
:100C5000900280938F02DF91CF910895CF93DF931D
:100C6000CDB7DEB7EA970FB6F894DEBF0FBECDBFA3
:100C7000789484B5826084BD84B5816084BD85B577
:100C8000826085BD85B5816085BD80916E00816083
:100C900080936E0010928100809181008260809329
:100CA000810080918100816080938100809180002B
:100CB0008160809380008091B10084608093B10056
:100CC0008091B00081608093B00080917A00846050
:100CD00080937A0080917A00826080937A0080917C
:100CE0007A00816080937A0080917A008068809396
:100CF0007A001092C100E091F401F091F50182E0D8
:100D00008083E091F001F091F1011082E091F20115
:100D1000F091F3018FEC80831092FC01E091F801D7
:100D2000F091F90186E08083E091F601F091F701FE
:100D3000808180618083E091F601F091F7018081EC
:100D400088608083E091F601F091F70180818068EE
:100D50008083E091F601F091F70180818F7D80839F
:100D600010929C0210929B0210929A021092990289
:100D700010929802109297028DE991E090939E0252
:100D800080939D0290918D02963108F057C02DEB13
:100D900030E030939802209397022BE931E03093B2
:100DA0009A02209399022CE231E030939C02209326
:100DB0009B0220916800983050F031E09E3008F49A
:100DC00030E081E001C0880F3A95EAF701C084E085
:100DD000822B80936800983038F09E3040F0963136
:100DE00048F020E030E008C02DE630E005C02BE6FA
:100DF00030E002C02CE630E030939502209394025C
:100E0000983030F481E001C0880F9A95EAF70EC05F
:100E1000292F30E09E3018F42850310902C02E509E
:100E2000310981E001C0880F2A95EAF78093960284
:100E300080919D0290919E020197F1F780919B0213
:100E400090919C02892B21F18091E1019091E20126
:100E500022E081389207E1F0009711F00E94E5024C
:100E600080919F028E7F80939F021092E0011092EA
:100E7000DF0181E892E09093E2018093E101E0914B
:100E80009402F0919502908180919602892B808343
:100E900081E391E00E944D0361E371E081E892E01B
:100EA0000E9419037E018FE2E80EF11C8E010F5F94
:100EB0001F4F412C512C3201539491E3C92EDD2454
:100EC000D39460E371E0CE01C5960E9414040E94A1
:100ED00006094B015C0160E371E0C7010E94140444
:100EE00068EB7BE080E090E00E94050260E371E047
:100EF000C8010E94140481E892E00E94AC02892B90
:100F000029F48DA99EA90097E9F432C081E892E006
:100F10000E94AC0218161906A4F781E892E00E941C
:100F2000C4028BA31CA241E050E0BE016D5D7F4F67
:100F3000C8010E9487036AE070E080E090E00E94B0
:100F40000502E4CF29813A812115310579F06FA995
:100F500078AD4D815E816417750740F0B9010E943C
:100F6000220C8D819E819AAF89AF12C00E94B20A75
:100F700089819A819EAB8DAB8B819C8198AF8FAB21
:100F80008D819E819AAF89AF1A8219821C821B8241
:100F90001E821D82C8010E94290489AD9AAD892B49
:100FA000C1F0EDA9FEA98081882399F060E471E089
:100FB000C8010E941404BE016B5C7F4FC8010E94EF
:100FC000E003BC0184EE91E00E942E03C8010E9460
:100FD00029048091E30181111DC08BE491E00E94FE
:100FE0004D0367E671E0C8010E941404B801CE0108
:100FF000C5960E94FF025C01C8010E942904AB2033
:10100000A09409F4A1C0D092E3018DE691E00E9482
:101010004D039AC01CA21BA21EA21DA218A61FA2AD
:10102000C501B401A30192010E9455092AE0A8015B
:101030000E941409F80101900020E9F73197AF01EF
:10104000401B510BB801CE0183960E94F3031AA6F0
:1010500019A61CA61BA61EA61DA6C9821A82F801E7
:1010600001900020E9F73197AF01401B510BB80107
:10107000CE0189960E94F3031A8219821C821B8278
:101080001E821D8269A57AA56115710531F04DA5F5
:101090005EA5C8010E94F30303C0C8010E94B50306
:1010A00061E871E0C8010E94C703BE016D5D7F4F1A
:1010B0000E94E00363E871E00E94C7038E159F055C
:1010C00079F0FC01608171816115710531F0448115
:1010D0005581C7010E94F30303C0C7010E94B503F5
:1010E000C8010E942904CE0189960E942904CE01DC
:1010F00083960E94290465E871E0C8010E941404E7
:10110000B701C8010E94E003BC0184EE91E00E9497
:101110002E03C8010E942904B70181E892E00E94D1
:101120002E0362E971E0C8010E941404B801CE01E7
:10113000C5960E94FF025C01C8010E942904AB20F1
:10114000A09411F01092E301C7010E942904CE017E
:10115000C5960E9429040E948A01B3CE80E291E0E4
:10116000909382028093810281E892E00C94E502E0
:101170008F929F92AF92BF92CF92DF92EF92FF92A7
:10118000CF93DF93EC01688179818A819B8161151E
:1011900071058105910521F464E279ED8BE597E015
:1011A0002DE133EF41E050E00E94550949015A0119
:1011B0009B01AC01A7EAB1E40E9474096B017C01B8
:1011C000ACEEB4EFA50194010E948209DC01CB01D1
:1011D0008C0D9D1DAE1DBF1DB7FF03C00197A1095A
:1011E000B04888839983AA83BB83BC01CD019F77D4
:1011F000DF91CF91FF90EF90DF90CF90BF90AF90B5
:101200009F908F9008950E94B808089580E091E023
:101210000E94B808089560930001709301018093C3
:101220000201909303010895BB272A3051F49923BA
:1012300042F4BDE290958095709561957F4F8F4FF8
:101240009F4F0C942409BB27FA01A62F6217710542
:1012500081059105330B30FB66F0AA27660F771FD7
:10126000881F991FAA1FA21710F0A21B6395385060
:10127000A9F7A05DAA3308F0A95DA19336F7B111D3
:10128000B1931082CA010C944509DC01FC01672F5F
:1012900071917723E1F7329704C07C916D9370834D
:1012A0006291AE17BF07C8F30895052E97FB1EF491
:1012B00000940E946C0957FD07D00E94BE0907FCEC
:1012C00003D04EF40C946C095095409530952195BF
:1012D0003F4F4F4F5F4F0895909580957095619562
:1012E0007F4F8F4F9F4F08950E94E009A59F900D5B
:1012F000B49F900DA49F800D911D11240895B7FFF8
:101300000C9474090E947409821B930B08952F9208
:101310003F924F925F926F927F928F929F92AF9285
:10132000BF92CF92DF92EF92FF920F931F93CF93D2
:10133000DF93CDB7DEB7CA1BDB0B0FB6F894DEBF69
:101340000FBECDBF09942A88398848885F846E848F
:101350007D848C849B84AA84B984C884DF80EE80D9
:10136000FD800C811B81AA81B981CE0FD11D0FB6E2
:10137000F894DEBF0FBECDBFED010895A1E21A2E95
:10138000AA1BBB1BFD010DC0AA1FBB1FEE1FFF1F29
:10139000A217B307E407F50720F0A21BB30BE40B79
:1013A000F50B661F771F881F991F1A9469F76095C0
:1013B0007095809590959B01AC01BD01CF0108957A
:1013C000A29FB001B39FC001A39F700D811D112486
:1013D000911DB29F700D811D1124911D089597FBE1
:1013E000072E16F4009407D077FD09D00E94030A57
:1013F00007FC05D03EF4909581959F4F0895709518
:1014000061957F4F0895AA1BBB1B51E107C0AA1F1E
:10141000BB1FA617B70710F0A61BB70B881F991F95
:101420005A95A9F780959095BC01CD010895EE0FCE
:10143000FF1F0590F491E02D0994CF93DF93823044
:10144000910510F482E090E0E091A202F091A302F5
:1014500020E030E0C0E0D0E0309711F140815181D0
:1014600048175907C0F04817590761F482819381E2
:10147000209719F09B838A832BC09093A3028093BB
:10148000A20226C02115310519F04217530718F49E
:101490009A01BE01DF01EF010280F381E02DDCCF74
:1014A0002115310509F1281B390B2430310590F441
:1014B00012968D919C9113976115710521F0FB0196
:1014C0009383828304C09093A3028093A202FD01C0
:1014D000329644C0FD01E20FF31F81939193225095
:1014E00031092D933C933AC02091A0023091A10282
:1014F000232B41F420910601309107013093A10282
:101500002093A0022091040130910501211531059D
:1015100041F42DB73EB74091080150910901241BB9
:10152000350BE091A002F091A102E217F307A0F4BD
:101530002E1B3F0B2817390778F0AC014E5F5F4F29
:101540002417350748F04E0F5F1F5093A1024093B8
:10155000A0028193919302C0E0E0F0E0CF01DF911F
:10156000CF9108950F931F93CF93DF93009709F4C2
:101570008CC0FC013297138212820091A20210915A
:10158000A3020115110581F420813181820F931F7F
:101590002091A0023091A1022817390779F5F09324
:1015A000A102E093A00271C0D80140E050E0AE1764
:1015B000BF0750F412962D913C911397AD01211560
:1015C000310509F1D901F3CF9D01DA01338322837B
:1015D00060817181860F971F8217930769F4EC0170
:1015E00028813981260F371F2E5F3F4F318320839B
:1015F0008A819B8193838283452B29F4F093A302F4
:10160000E093A20242C01396FC93EE931297ED0171
:10161000499159919E01240F351FE217F30771F488
:1016200080819181840F951F029611969C938E93D1
:101630008281938113969C938E931297E0E0F0E061
:10164000D80112968D919C911397009719F0F8018B
:101650008C01F6CF8D919C9198012E5F3F4F820FA8
:10166000931F2091A0023091A1022817390769F435
:10167000309729F41092A3021092A20202C01382A2
:1016800012821093A1020093A002DF91CF911F91CB
:101690000F910895A0E0B0E0E0E5FBE00C948B0929
:1016A000EC01009721F4CB010E941D0AB8C0FC0197
:1016B000E60FF71F9C0122503109E217F30708F4E7
:1016C000ACC0D9010D911C91119706171707B0F006
:1016D0000530110508F49FC0C801049786179707C5
:1016E00008F499C002501109061B170B01931193BE
:1016F0006D937C93CF010E94B20A8DC05B01A01A4A
:10170000B10A4C01800E911EA091A202B091A302D9
:1017100040E050E0E12CF12C109709F44AC0A815E4
:10172000B905D1F56D907C901197630182E0C80EE8
:10173000D11CCA14DB0480F1A3014A195B096A01B8
:1017400082E0C80ED11C1296BC9012971396AC91F1
:10175000B5E0CB16D10440F0B282A383518340831D
:10176000D9016D937C930AC00E5F1F4FC301800F98
:10177000911FF90191838083EB2DFA2FE114F1047D
:1017800031F0D7011396FC93EE93129744C0F09377
:10179000A302E093A2023FC08D919C91119748173C
:1017A000590708F4AC017D0112960D90BC91A02D53
:1017B000B3CF8091A0029091A10288159905E1F420
:1017C00046175707C8F480910401909105010097CE
:1017D00041F48DB79EB74091080150910901841BD7
:1017E000950BE817F907C8F4F093A102E093A00263
:1017F000F901718360830FC0CB010E941D0A7C0137
:10180000009759F0A801BE010E94190CCE010E9458
:10181000B20AC70104C0CE0102C080E090E0CDB79B
:10182000DEB7EEE00C94A70981E090E0F8940C9408
:10183000430CFB01DC0102C001900D92415050406D
:10184000D8F70895FB01DC0101900D920020E1F72B
:101850000895FB0151915523A9F0BF01DC014D9181
:1018600045174111E1F759F4CD010190002049F0ED
:101870004D9140154111C9F3FB014111EFCF81E0BA
:1018800090E00197089510E0C2E6D0E004C0FE01A8
:101890000E94170A2196C336D107C9F7F894FFCFE3
:1018A000010000000000A4028000000000002101EF
:1018B0008E00B9006801EA00C800DC0000000000EA
:1018C00058028E00FC025702AC02C4023F020D0A0D
:1018D0000041726475696E6F2052656164792E00F3
:1018E00052656365697665203A20006E6F742063E7
:1018F0006F6E6E65637420746F20526173706265E1
:101900007272792050690048656C6C6F00436F6E8D
:101910006E656374696F6E20737563636573732E90
:10192000002C003B0053656E642064617461203AB2
:0619300020004279650071
:00000001FF
