:100000000C9463000C948B000C948B000C94D6041D
:100010000C94D6040C94D6040C948B000C948B0096
:100020000C948B000C948B000C948B000C948B0024
:100030000C948B000C948B000C948B000C948B0014
:100040000C948C040C948B000C945A040C9434047F
:100050000C948B000C948B000C948B000C948B00F4
:100060000C948B000C948B0000000008000201002F
:100070000003040700000000000000000000000072
:10008000250028002B0000000000240027002A0083
:1000900000000000230026002900040404040404D6
:1000A0000404020202020202030303030303010227
:1000B00004081020408001020408102001020408F6
:1000C00010205005E50811241FBECFEFD8E0DEBF99
:1000D000CDBF11E0A0E0B1E0E8E5F9E102C0059094
:1000E0000D92A238B107D9F722E0A2E8B1E001C031
:1000F0001D92A039B207E1F710E0C2E6D0E004C0DB
:100100002197FE010E94730AC136D107C9F70E94E8
:1001100032060C949F0C0C9400000895CF92DF924D
:10012000EF92FF920F931F93CF93DF936C017A01AD
:100130008B01C0E0D0E0CE15DF0589F0D8016D91CC
:100140008D01D601ED91FC910190F081E02DC60169
:100150000995892B11F47E0102C02196ECCFC701CD
:10016000DF91CF911F910F91FF90EF90DF90CF9093
:100170000895FC01538D448D252F30E0842F90E0AD
:10018000821B930B541710F0CF9608950197089592
:10019000FC01918D828D981761F0828DDF01A80F8F
:1001A000B11D5D968C91928D9F5F9F73928F90E0B1
:1001B00008958FEF9FEF0895FC01918D828D981720
:1001C00031F0828DE80FF11D858D90E008958FEF5D
:1001D0009FEF0895FC01918D228D892F90E0805C26
:1001E0009F4F821B91098F739927089580ED91E0AD
:1001F0000E94EA0021E0892B09F420E0822F089573
:10020000FC01848DDF01A80FB11DA35ABF4F2C91B3
:10021000848D90E001968F739927848FA689B78982
:100220002C93A089B1898C9180648C93938D848D5B
:10023000981306C00288F389E02D80818F7D80832A
:100240000895EF92FF920F931F93CF93DF93EC01EA
:1002500081E0888F9B8D8C8D981305C0E889F98982
:10026000808185FD24C0F62E0B8D10E00F5F1F4F9F
:100270000F731127E02E8C8DE8120CC00FB607FC0F
:10028000FACFE889F989808185FFF5CFCE010E94F8
:100290000001F1CF8B8DFE01E80FF11DE35AFF4FF6
:1002A000F0820B8FEA89FB898081806207C0EE892A
:1002B000FF896083E889F98980818064808381E097
:1002C00090E0DF91CF911F910F91FF90EF900895F3
:1002D000CF93DF93EC01888D8823C9F0EA89FB89ED
:1002E000808185FD05C0A889B9898C9186FD0FC0E4
:1002F0000FB607FCF5CF808185FFF2CFA889B989B9
:100300008C9185FFEDCFCE010E940001E7CFDF91F8
:10031000CF91089580E090E0892B29F00E94F600AB
:1003200081110C940000089590E0FC01E859FF4F02
:100330003491FC01E255FF4F2491FC01E656FF4F3A
:10034000E491EE2309F43BC0332339F1333091F0CB
:1003500038F43130A9F0323001F584B58F7D12C008
:10036000373091F03830A1F03430B9F4809180000A
:100370008F7D03C0809180008F77809380000DC0B7
:1003800084B58F7784BD09C08091B0008F7703C09A
:100390008091B0008F7D8093B000F0E0EE0FFF1FE2
:1003A000E458FF4FA591B4918FB7F894EC91611187
:1003B00003C020952E2301C02E2B2C938FBF0895B0
:1003C0003FB7F8948091C7019091C801A091C901ED
:1003D000B091CA0126B5A89B05C02F3F19F0019620
:1003E000A11DB11D3FBFBA2FA92F982F8827820FBB
:1003F000911DA11DB11DBC01CD0142E0660F771F0B
:10040000881F991F4A95D1F708958F929F92AF92B6
:10041000BF92CF92DF92EF92FF926B017C010E941C
:10042000E0014B015C01C114D104E104F104F1F0DD
:100430000E94E001DC01CB0188199909AA09BB09D6
:10044000883E9340A105B10570F321E0C21AD1089E
:10045000E108F10888EE880E83E0981EA11CB11C0B
:10046000C114D104E104F10419F7DDCFFF90EF903E
:10047000DF90CF90BF90AF909F908F900895209184
:10048000CD013091CE012817390771F49091CB013D
:100490008091CC01981741F0E091CB01F0E0EE574C
:1004A000FE4F808190E008958FEF9FEF08950895AB
:1004B0001F93CF93DF93DC015C962D913C915D9768
:1004C0002115310539F481E090E013969C938E93C9
:1004D00012973DC05196ED91FC91529750969C9188
:1004E0005097892F80951FB75E964C915E9741FB80
:1004F000772770F941FD6095F8944081772311F0DA
:10050000492B01C048234083E9012197F1F748E0D6
:10051000508160FF02C0592B01C058235083E9016C
:100520002197F1F76695415099F7772321F0908153
:100530008923808303C08081982B90831FBF5C96A2
:100540008D919C915D970197F1F721E030E0C90111
:10055000DF91CF911F9108952091CD013091CE016F
:100560002817390771F48091CC012091CB0190E0DC
:10057000805C9F4F821B910960E470E00E944B0AEF
:10058000089580E090E008952091CD013091CE0152
:1005900028173907B9F49091CB018091CC019817B5
:1005A00089F0E091CB01F0E0EE57FE4F8081209181
:1005B000CB0130E02F5F3F4F2F7333272093CB01C8
:1005C00090E008958FEF9FEF0895E091CD01F091B5
:1005D000CE01E817F90769F4A389B4899C9185894C
:1005E000809589238C931092CE011092CD0181E0E9
:1005F000089580E00895089580E090E00895CF93F5
:10060000DF93FC0124813581232B71F0FB01DC0198
:10061000CD91DC9160817181CE010E94850C0097A3
:1006200019F08C1B9D0B02C08FEF9FEFDF91CF91D4
:1006300008956115710579F0FB0101900020E9F73B
:100640003197AF01461B570BDC01ED91FC91028005
:10065000F381E02D099480E090E008950F931F93BB
:10066000CF93DF93EC01E881F981DB0114964D9182
:100670005C9115976D917C910280F381E02D099535
:100680008C016EE271E0CE010E941903800F911F70
:10069000DF91CF911F910F9108950F931F93CF93E7
:1006A000DF93EC0188819981009729F02A813B81B1
:1006B0002617370788F48B016F5F7F4F0E94A60BC8
:1006C000009761F0998388831B830A832C813D8185
:1006D000232B11F4FC01108281E001C080E0DF9146
:1006E000CF911F910F910895EF92FF920F931F9357
:1006F000CF93DF93FC01248135816115710511F4DD
:1007000080E019C041155105A9F07B01EC018A0177
:10071000020F131FB8010E944D03882389F328811B
:1007200039818C819D81B701820F931F0E947E0CBD
:100730001D830C8381E0DF91CF911F910F91FF907A
:10074000EF900895CF93DF93EC0188819981009712
:1007500011F00E940E0B198218821D821C821B82CE
:100760001A82DF91CF910895CF93DF93EC01611549
:10077000710561F0FB0101900020E9F73197AF01AD
:10078000461B570B0E947403811103C0CE010E94C7
:10079000A203CE01DF91CF910895CF93DF93EC01B7
:1007A000FB0144815581608171810E947403811134
:1007B00003C0CE010E94A203CE01DF91CF91089524
:1007C000EF92FF920F931F93CF93DF93EC017B0186
:1007D0008A01BA010E944D03811104C0CE010E941A
:1007E000A20307C01D830C83B701888199810E94F1
:1007F0007E0CCE01DF91CF911F910F91FF90EF9072
:100800000895CF93DF93EC016115710559F0FB0159
:1008100001900020E9F73197AF01461B570B0E946A
:10082000E00302C00E94A203CE01DF91CF910895A0
:10083000FC011182108213821282158214826115CA
:10084000710551F0FB0101900020E9F73197AF01EC
:10085000461B570B0C94E0030895FC0180819181A5
:100860000C940E0B0E94700C1F920F920FB60F92F9
:1008700011242F933F934F935F936F937F938F93A5
:100880009F93AF93BF93EF93FF9380ED91E00E940E
:100890000001FF91EF91BF91AF919F918F917F9157
:1008A0006F915F914F913F912F910F900FBE0F90DD
:1008B0001F9018951F920F920FB60F9211242F932D
:1008C0008F939F93EF93FF93E091E001F091E1010B
:1008D0008081E091E601F091E70182FD12C09081F4
:1008E0008091E9018F5F8F732091EA01821751F0A7
:1008F000E091E901F0E0E053FE4F958F8093E9012C
:1009000001C08081FF91EF919F918F912F910F9066
:100910000FBE0F901F9018951F920F920FB60F9257
:1009200011242F933F938F939F93AF93BF93809105
:10093000C3019091C401A091C501B091C60130914D
:10094000C20123E0230F2D3720F40196A11DB11D14
:1009500005C026E8230F0296A11DB11D2093C201F8
:100960008093C3019093C401A093C501B093C601C5
:100970008091C7019091C801A091C901B091CA01AD
:100980000196A11DB11D8093C7019093C801A0934A
:10099000C901B093CA01BF91AF919F918F913F91CF
:1009A0002F910F900FBE0F901F9018951F920F92CE
:1009B0000FB60F9211242F933F934F935F936F9332
:1009C0007F938F939F93AF93BF93EF93FF93E091A8
:1009D000CD01F091CE01309709F451C0968DA685D6
:1009E000B785858591FF04C09C91892329F447C070
:1009F0009C91892309F043C0A389B4899C9185897E
:100A0000809589238C93868997890197F1F7608D6A
:100A1000718DA685B785558538E020E0CB0101971B
:100A2000F1F7822F90E095958795282F4C914523DB
:100A300009F02068315091F7868D81FD20958091D5
:100A4000CC0190E001968F7399273091CB01381734
:100A500049F0A091CC01B0E0AE57BE4F2C938093EB
:100A6000CC0103C0868D8160868F828D938D019726
:100A7000F1F7A389B4899C918589892B8C93FF9187
:100A8000EF91BF91AF919F918F917F916F915F9106
:100A90004F913F912F910F900FBE0F901F9018957F
:100AA000CF93DF931092D3011092D20188EE93E09E
:100AB000A0E0B0E08093D4019093D501A093D6013B
:100AC000B093D7012EE031E03093D1012093D001D3
:100AD00025EC30E03093DD012093DC0124EC30E0A4
:100AE0003093DF012093DE0120EC30E03093E10110
:100AF0002093E00121EC30E03093E3012093E20108
:100B000022EC30E03093E5012093E40126EC30E064
:100B10003093E7012093E6011092E9011092EA0177
:100B20001092EB011092EC011092700210926F0281
:100B30008093710290937202A0937302B093740237
:100B400080E291E090936E0280936D021092840295
:100B500010928302109286021092850210928802EF
:100B60001092870210928A021092890260918B0281
:100B70006E7F6D7F60938B026695617081E0682760
:100B800083E00E949401E1EBF0E02491EDE9F0E0D4
:100B90008491882399F090E0880F991FFC01EA570F
:100BA000FF4FA591B491FC01E458FF4F85919491BA
:100BB0008FB7F894EC91E22BEC938FBFE1EBF0E070
:100BC000E491E0937D02EDE9F0E0E491F0E0EE0FD6
:100BD000FF1FE458FF4F8591949190937F0280937B
:100BE0007E02E0EBF0E02491ECE9F0E084918823D0
:100BF000C1F090E0880F991FFC01EA57FF4FC591A3
:100C0000D491FC01E458FF4FA591B4919FB7F8949B
:100C10008881E22FE0958E2388838C91E823EC93E2
:100C20009FBF80918B0281FD04C061E082E00E9441
:100C3000940182E080937902E0EBF0E0E491E093AC
:100C40007A02ECE9F0E0E491F0E0EE0FFF1FE057EC
:100C5000FF4F8591949190937C0280937B02DF916A
:100C6000CF910895CF93DF93CDB7DEB7EA970FB654
:100C7000F894DEBF0FBECDBF789484B5826084BD8A
:100C800084B5816084BD85B5826085BD85B5816090
:100C900085BD80916E00816080936E00109281000E
:100CA00080918100826080938100809181008160C9
:100CB000809381008091800081608093800080918A
:100CC000B10084608093B1008091B0008160809316
:100CD000B00080917A00846080937A0080917A00DD
:100CE000826080937A0080917A00816080937A009C
:100CF00080917A00806880937A001092C100E09120
:100D0000E001F091E10182E08083E091DC01F0916B
:100D1000DD011082E091DE01F091DF018FEC808334
:100D20001092E801E091E401F091E50186E0808312
:100D3000E091E201F091E301808180618083E091A4
:100D4000E201F091E301808188608083E091E2011B
:100D5000F091E301808180688083E091E201F0916D
:100D6000E30180818F7D8083109288021092870238
:100D700010928602109285021092840210928302D1
:100D80008DE991E090938A02809389029091790293
:100D9000963108F057C02DEB30E030938402209359
:100DA00083022BE931E030938602209385022CE206
:100DB00031E03093880220938702209168009830B8
:100DC00050F031E09E3008F430E081E001C0880F3F
:100DD0003A95EAF701C084E0822B8093680098304E
:100DE00038F09E3040F0963148F020E030E008C006
:100DF0002DE630E005C02BE630E002C02CE630E006
:100E00003093810220938002983030F481E001C059
:100E1000880F9A95EAF70EC0292F30E09E3018F41B
:100E20002850310902C02E50310981E001C0880FDD
:100E30002A95EAF7809382028091890290918A0232
:100E40000197F1F78091870290918802892B21F117
:100E50008091CD019091CE0122E08D369207E1F094
:100E6000009711F00E94E50280918B028E7F8093A3
:100E70008B021092CC011092CB018DE692E0909300
:100E8000CE018093CD01E0918002F09181029081AA
:100E900080918202892B808361E371E080ED91E093
:100EA0000E9419036EE271E080ED91E00E94190347
:100EB00061E371E08DE692E00E9419038E01015D0D
:100EC0001F4F812C912C5401939491E3692E772428
:100ED000739460E371E0CE01C5960E9418040E94ED
:100EE0003D096B017C0160E371E0C8010E941804B8
:100EF00068EB7BE080E090E00E94050260E371E037
:100F0000CE0101960E9418048DE692E00E94AC0288
:100F1000892B29F48DA99EA90097F1F433C08DE6A1
:100F200092E00E94AC0218161906A4F78DE692E032
:100F30000E94C4028BA31CA241E050E0BE016D5D83
:100F40007F4FCE0101960E9474036AE070E080E05A
:100F500090E00E940502E3CF29813A8121153105F5
:100F600079F06FA978AD4D815E816417750740F007
:100F7000B9010E947E0C8D819E819AAF89AF12C00B
:100F80000E940E0B89819A819EAB8DAB8B819C81D7
:100F900098AF8FAB8D819E819AAF89AF1A821982EB
:100FA0001C821B821E821D82CE0101960E942D048E
:100FB00089AD9AAD892B61F0EDA9FEA980818823C6
:100FC00039F0BE016B5C7F4F80ED91E00E942E03F3
:100FD0008091CF01811124C060E471E0CE010196BF
:100FE0000E941804BE016F5F7F4FCE01C5960E941C
:100FF000FF027C01CE0101960E942D04EF20E094B7
:1010000011F07092CF0166E471E080ED91E00E94F2
:1010100019036EE271E080ED91E00E9419039BC01C
:101020001CA21BA21EA21DA218A61FA2C701B601C8
:10103000A50194010E94B1092AE0AE014F5F5F4F04
:101040000E945609BE016F5F7F4FCE0183960E94BA
:1010500001041AA619A61CA61BA61EA61DA6698217
:101060001A82BE016F5F7F4FCE0189960E940104F4
:101070001A8219821C821B821E821D8269A57AA592
:101080006115710539F04DA55EA5CE0101960E944E
:10109000E00304C0CE0101960E94A20362E671E063
:1010A000CE0101960E94B403BE016D5D7F4F0E9488
:1010B000CD0364E671E00E94B4038017910779F0D4
:1010C000FC01608171816115710531F044815581A8
:1010D000C8010E94E00303C0C8010E94A203CE0120
:1010E00001960E942D04CE0189960E942D04CE0106
:1010F00083960E942D0466E671E0CE0101960E945F
:101100001804B801CE0101960E94CD03BC0180ED08
:1011100091E00E942E03CE0101960E942D04B80199
:101120008DE692E00E942E0363E771E0CE01019606
:101130000E941804BE016F5F7F4FCE01C5960E94CA
:10114000FF027C01CE0101960E942D04EF20E09465
:1011500011F01092CF018091CF011CA21BA21EA200
:101160001DA218A61FA24AE0BE016F5F7F4F90E04C
:101170000E944B09BE016F5F7F4FCE0183960E9494
:10118000010467E771E0CE0101960E941804BE01D8
:101190006D5D7F4FCE0101960E94CD03BC0180EDB5
:1011A00091E00E942E03CE0101960E942D04CE01F3
:1011B00083960E942D04C8010E942D04CE01C5967D
:1011C0000E942D040E948A0184CE80E291E09093D7
:1011D0006E0280936D028DE692E00C94E5028F9290
:1011E0009F92AF92BF92CF92DF92EF92FF92CF93F6
:1011F000DF93EC01688179818A819B81611571059A
:101200008105910521F464E279ED8BE597E02DE10C
:1012100033EF41E050E00E94B10949015A019B01BE
:10122000AC01A7EAB1E40E94D0096B017C01ACEEED
:10123000B4EFA50194010E94DE09DC01CB018C0D05
:101240009D1DAE1DBF1DB7FF03C00197A109B0488A
:1012500088839983AA83BB83BC01CD019F77DF91EB
:10126000CF91FF90EF90DF90CF90BF90AF909F9085
:101270008F9008950E94EF08089580E091E00E9409
:10128000EF080895609300017093010180930201BB
:10129000909303010895BB274A3031F4992322F437
:1012A000BDE2909581959F4F0C948809BB272A3009
:1012B00051F4992342F4BDE2909580957095619523
:1012C0007F4F8F4F9F4F0C946609BB27FA01A62FC3
:1012D0006217710581059105330B30FB66F0AA2773
:1012E000660F771F881F991FAA1FA21710F0A21B55
:1012F00063953850A9F7A05DAA3308F0A95DA193C2
:1013000036F7B111B1931082CA010C94A109BB2721
:10131000FB015527AA27880F991FAA1FA41710F0B1
:10132000A41B83955051B9F7A05DAA3308F0A95DBD
:10133000A193009779F7B111B1931192CB010C945D
:10134000A109DC01FC01672F71917723E1F7329746
:1013500004C07C916D9370836291AE17BF07C8F390
:101360000895052E97FB1EF400940E94C80957FDAE
:1013700007D00E941A0A07FC03D04EF40C94C80947
:1013800050954095309521953F4F4F4F5F4F0895B1
:1013900090958095709561957F4F8F4F9F4F0895E1
:1013A0000E943C0AA59F900DB49F900DA49F800DB4
:1013B000911D11240895B7FF0C94D0090E94D00903
:1013C000821B930B08952F923F924F925F926F92E0
:1013D0007F928F929F92AF92BF92CF92DF92EF92C5
:1013E000FF920F931F93CF93DF93CDB7DEB7CA1B46
:1013F000DB0B0FB6F894DEBF0FBECDBF09942A8871
:10140000398848885F846E847D848C849B84AA8418
:10141000B984C884DF80EE80FD800C811B81AA81A5
:10142000B981CE0FD11D0FB6F894DEBF0FBECDBF70
:10143000ED010895A1E21A2EAA1BBB1BFD010DC0F0
:10144000AA1FBB1FEE1FFF1FA217B307E407F50774
:1014500020F0A21BB30BE40BF50B661F771F881F50
:10146000991F1A9469F760957095809590959B01E6
:10147000AC01BD01CF010895A29FB001B39FC0018F
:10148000A39F700D811D1124911DB29F700D811DB0
:101490001124911D089597FB072E16F4009407D090
:1014A00077FD09D00E945F0A07FC05D03EF49095B5
:1014B00081959F4F0895709561957F4F0895AA1B60
:1014C000BB1B51E107C0AA1FBB1FA617B70710F02F
:1014D000A61BB70B881F991F5A95A9F78095909561
:1014E000BC01CD010895EE0FFF1F0590F491E02D92
:1014F0000994CF93DF938230910510F482E090E05D
:10150000E0918E02F0918F0220E030E0C0E0D0E068
:10151000309711F14081518148175907C0F04817A1
:10152000590761F482819381209719F09B838A8304
:101530002BC090938F0280938E0226C02115310517
:1015400019F04217530718F49A01BE01DF01EF01A9
:101550000280F381E02DDCCF2115310509F1281B34
:10156000390B2430310590F412968D919C9113978C
:101570006115710521F0FB019383828304C0909370
:101580008F0280938E02FD01329644C0FD01E20F6E
:10159000F31F81939193225031092D933C933AC0CC
:1015A00020918C0230918D02232B41F42091060171
:1015B0003091070130938D0220938C022091040119
:1015C000309105012115310541F42DB73EB7409109
:1015D000080150910901241B350BE0918C02F09118
:1015E0008D02E217F307A0F42E1B3F0B28173907D3
:1015F00078F0AC014E5F5F4F2417350748F04E0F6F
:101600005F1F50938D0240938C028193919302C08F
:10161000E0E0F0E0CF01DF91CF9108950F931F93A9
:10162000CF93DF93009709F48CC0FC0132971382AB
:10163000128200918E0210918F020115110581F422
:1016400020813181820F931F20918C0230918D0275
:101650002817390779F5F0938D02E0938C0271C059
:10166000D80140E050E0AE17BF0750F412962D911C
:101670003C911397AD012115310509F1D901F3CF43
:101680009D01DA013383228360817181860F971F68
:101690008217930769F4EC0128813981260F371FDF
:1016A0002E5F3F4F318320838A819B819383828386
:1016B000452B29F4F0938F02E0938E0242C01396DB
:1016C000FC93EE931297ED01499159919E01240FDD
:1016D000351FE217F30771F480819181840F951F04
:1016E000029611969C938E938281938113969C937C
:1016F0008E931297E0E0F0E0D80112968D919C91C4
:101700001397009719F0F8018C01F6CF8D919C91F9
:1017100098012E5F3F4F820F931F20918C023091D2
:101720008D022817390769F4309729F410928F0237
:1017300010928E0202C01382128210938D020093C7
:101740008C02DF91CF911F910F910895A0E0B0E03E
:10175000ECEAFBE00C94E709EC01009721F4CB01E3
:101760000E94790AB8C0FC01E60FF71F9C012250C5
:101770003109E217F30708F4ACC0D9010D911C91AF
:10178000119706171707B0F00530110508F49FC030
:10179000C80104978617970708F499C002501109E9
:1017A000061B170B019311936D937C93CF010E943D
:1017B0000E0B8DC05B01A01AB10A4C01800E911E68
:1017C000A0918E02B0918F0240E050E0E12CF12C0C
:1017D000109709F44AC0A815B905D1F56D907C9011
:1017E0001197630182E0C80ED11CCA14DB0480F19A
:1017F000A3014A195B096A0182E0C80ED11C129646
:10180000BC9012971396AC91B5E0CB16D10440F082
:10181000B282A38351834083D9016D937C930AC024
:101820000E5F1F4FC301800F911FF90191838083C9
:10183000EB2DFA2FE114F10431F0D7011396FC934C
:10184000EE93129744C0F0938F02E0938E023FC054
:101850008D919C9111974817590708F4AC017D01AF
:1018600012960D90BC91A02DB3CF80918C029091D7
:101870008D0288159905E1F446175707C8F4809141
:10188000040190910501009741F48DB79EB74091F6
:10189000080150910901841B950BE817F907C8F45A
:1018A000F0938D02E0938C02F901718360830FC085
:1018B000CB010E94790A7C01009759F0A801BE0172
:1018C0000E94750CCE010E940E0BC70104C0CE0110
:1018D00002C080E090E0CDB7DEB7EEE00C94030AE2
:1018E00081E090E0F8940C949F0CFB01DC0102C0B5
:1018F00001900D9241505040D8F70895FB01DC0152
:1019000001900D920020E1F70895FB0151915523BC
:10191000A9F0BF01DC014D9145174111E1F759F4E0
:10192000CD010190002049F04D9140154111C9F3BE
:10193000FB014111EFCF81E090E00197089510E0A5
:10194000C2E6D0E004C0FE010E94730A2196C336AD
:08195000D107C9F7F894FFCF9D
:10195800010000000000900280000000000021014A
:101968008E00B9006801EA00C800DC000000000031
:1019780058028E00FC025702AC02C4023F020D0A54
:101988000041726475696E6F2052656164792E003A
:1019980048656C6C6F006E6F7420636F6E6E656364
:1019A8007420746F2052617370626572727920506E
:1019B80069002C003B0053656E64206461746120EB
:1019C8003A200042796500636F6E6E656374203A51
:0219D8002000ED
:00000001FF
