:100000000C9463000C948B000C948B000C94810472
:100010000C9481040C9481040C948B000C948B0040
:100020000C948B000C948B000C948B000C948B0024
:100030000C948B000C948B000C948B000C948B0014
:100040000C9437040C948B000C9405040C94DF037F
:100050000C948B000C948B000C948B000C948B00F4
:100060000C948B000C948B0000000008000201002F
:100070000003040700000000000000000000000072
:10008000250028002B0000000000240027002A0083
:1000900000000000230026002900040404040404D6
:1000A0000404020202020202030303030303010227
:1000B00004081020408001020408102001020408F6
:1000C0001020FB040E0811241FBECFEFD8E0DEBFC6
:1000D000CDBF22E0A4E4B1E001C01D92A135B2077A
:1000E000E1F711E0A0E0B1E0E6E9F5E102C005903A
:1000F0000D92A434B107D9F710E0C2E6D0E004C0F5
:100100002197FE010E94AC08C136D107C9F70E94B1
:10011000DD050C94BE0A0C9400000895CF92DF9286
:10012000EF92FF920F931F93CF93DF936C017A01AD
:100130008B01C0E0D0E0CE15DF0589F0D8016D91CC
:100140008D01D601ED91FC910190F081E02DC60169
:100150000995892B11F47E0102C02196ECCFC701CD
:10016000DF91CF911F910F91FF90EF90DF90CF9093
:100170000895FC01538D448D252F30E0842F90E0AD
:10018000821B930B541710F0CF9608950197089592
:10019000FC01918D828D981761F0828DDF01A80F8F
:1001A000B11D5D968C91928D9F5F9F73928F90E0B1
:1001B00008958FEF9FEF0895FC01918D828D981720
:1001C00031F0828DE80FF11D858D90E008958FEF5D
:1001D0009FEF0895FC01918D228D892F90E0805C26
:1001E0009F4F821B91098F739927089581E991E0B0
:1001F0000E94EA0021E0892B09F420E0822F089573
:10020000FC01848DDF01A80FB11DA35ABF4F2C91B3
:10021000848D90E001968F739927848FA689B78982
:100220002C93A089B1898C9180648C93938D848D5B
:10023000981306C00288F389E02D80818F7D80832A
:100240000895EF92FF920F931F93CF93DF93EC01EA
:1002500081E0888F9B8D8C8D981305C0E889F98982
:10026000808185FD24C0F62E0B8D10E00F5F1F4F9F
:100270000F731127E02E8C8DE8120CC00FB607FC0F
:10028000FACFE889F989808185FFF5CFCE010E94F8
:100290000001F1CF8B8DFE01E80FF11DE35AFF4FF6
:1002A000F0820B8FEA89FB898081806207C0EE892A
:1002B000FF896083E889F98980818064808381E097
:1002C00090E0DF91CF911F910F91FF90EF900895F3
:1002D000CF93DF93EC01888D8823C9F0EA89FB89ED
:1002E000808185FD05C0A889B9898C9186FD0FC0E4
:1002F0000FB607FCF5CF808185FFF2CFA889B989B9
:100300008C9185FFEDCFCE010E940001E7CFDF91F8
:10031000CF91089580E090E0892B29F00E94F600AB
:1003200081110C940000089590E0FC01E859FF4F02
:100330003491FC01E255FF4F2491FC01E656FF4F3A
:10034000E491EE2309F43BC0332339F1333091F0CB
:1003500038F43130A9F0323001F584B58F7D12C008
:10036000373091F03830A1F03430B9F4809180000A
:100370008F7D03C0809180008F77809380000DC0B7
:1003800084B58F7784BD09C08091B0008F7703C09A
:100390008091B0008F7D8093B000F0E0EE0FFF1FE2
:1003A000E458FF4FA591B4918FB7F894EC91611187
:1003B00003C020952E2301C02E2B2C938FBF0895B0
:1003C0003FB7F8948091890190918A01A0918B01A7
:1003D000B0918C0126B5A89B05C02F3F19F001965E
:1003E000A11DB11D3FBFBA2FA92F982F8827820FBB
:1003F000911DA11DB11DBC01CD0142E0660F771F0B
:10040000881F991F4A95D1F708958F929F92AF92B6
:10041000BF92CF92DF92EF92FF926B017C010E941C
:10042000E0014B015C01C114D104E104F104F1F0DD
:100430000E94E001DC01CB0188199909AA09BB09D6
:10044000883E9340A105B10570F321E0C21AD1089E
:10045000E108F10888EE880E83E0981EA11CB11C0B
:10046000C114D104E104F10419F7DDCFFF90EF903E
:10047000DF90CF90BF90AF909F908F900895209184
:100480008F01309190012817390771F490918D01F7
:1004900080918E01981741F0E0918D01F0E0EC5BC6
:1004A000FE4F808190E008958FEF9FEF08950895AB
:1004B0001F93CF93DF93DC015C962D913C915D9768
:1004C0002115310539F481E090E013969C938E93C9
:1004D00012973DC05196ED91FC91529750969C9188
:1004E0005097892F80951FB75E964C915E9741FB80
:1004F000772770F941FD6095F8944081772311F0DA
:10050000492B01C048234083E9012197F1F748E0D6
:10051000508160FF02C0592B01C058235083E9016C
:100520002197F1F76695415099F7772321F0908153
:100530008923808303C08081982B90831FBF5C96A2
:100540008D919C915D970197F1F721E030E0C90111
:10055000DF91CF911F91089520918F0130919001EB
:100560002817390771F480918E0120918D0190E058
:10057000805C9F4F821B910960E470E00E948408B8
:10058000089580E090E0089520918F0130919001CE
:1005900028173907B9F490918D0180918E01981731
:1005A00089F0E0918D01F0E0EC5BFE4F80812091BD
:1005B0008D0130E02F5F3F4F2F73332720938D0144
:1005C00090E008958FEF9FEF0895E0918F01F091F3
:1005D0009001E817F90769F4A389B4899C9185898A
:1005E000809589238C931092900110928F0181E065
:1005F000089580E00895089580E090E00895DC017A
:10060000ED91FC910280F381E02D42E050E06AE23E
:1006100071E009940F931F93CF93DF93EC01E8816E
:10062000F981DB0114964D915C9115976D917C9148
:100630000280F381E02D09958C01CE010E94FF021A
:10064000800F911FDF91CF911F910F9108950F930C
:100650001F93CF93DF93EC0188819981009729F054
:100660002A813B812617370788F48B016F5F7F4F04
:100670000E94DF09009761F0998388831B830A83B6
:100680002C813D81232B11F4FC01108281E001C0FB
:1006900080E0DF91CF911F910F910895EF92FF922B
:1006A0000F931F93CF93DF93FC0124813581611554
:1006B000710511F480E019C041155105A9F07B01C5
:1006C000EC018A01020F131FB8010E94270388233F
:1006D00089F3288139818C819D81B701820F931F15
:1006E0000E94B70A1D830C8381E0DF91CF911F9197
:1006F0000F91FF90EF900895CF93DF93EC018881E5
:100700009981009711F00E944709198218821D8271
:100710001C821B821A82DF91CF910895CF93DF93C1
:10072000EC016115710561F0FB0101900020E9F712
:100730003197AF01461B570B0E944E03811103C036
:10074000CE010E947C03CE01DF91CF910895EF92FC
:10075000FF920F931F93CF93DF93EC017B018A01EC
:10076000BA010E942703811104C0CE010E947C03BC
:1007700007C01D830C83B701888199810E94B70A45
:10078000CE01DF91CF911F910F91FF90EF900895CF
:10079000FC0111821082138212821582148261156B
:1007A000710551F0FB0101900020E9F73197AF018D
:1007B000461B570B0C94A70308950E94A90A1F9289
:1007C0000F920FB60F9211242F933F934F935F9385
:1007D0006F937F938F939F93AF93BF93EF93FF9309
:1007E00081E991E00E940001FF91EF91BF91AF91EB
:1007F0009F918F917F916F915F914F913F912F9139
:100800000F900FBE0F901F9018951F920F920FB66A
:100810000F9211242F938F939F93EF93FF93E09167
:10082000A101F091A2018081E091A701F091A801BE
:1008300082FD12C090818091AA018F5F8F732091F9
:10084000AB01821751F0E091AA01F0E0EF56FE4FA4
:10085000958F8093AA0101C08081FF91EF919F91B4
:100860008F912F910F900FBE0F901F9018951F9290
:100870000F920FB60F9211242F933F938F939F9354
:10088000AF93BF938091850190918601A0918701DC
:10089000B09188013091840123E0230F2D3720F49B
:1008A0000196A11DB11D05C026E8230F0296A11DCA
:1008B000B11D209384018093850190938601A093BC
:1008C0008701B09388018091890190918A01A0915C
:1008D0008B01B0918C010196A11DB11D80938901FE
:1008E00090938A01A0938B01B0938C01BF91AF913B
:1008F0009F918F913F912F910F900FBE0F901F905E
:1009000018951F920F920FB60F9211242F933F93B9
:100910004F935F936F937F938F939F93AF93BF9307
:10092000EF93FF93E0918F01F0919001309709F4DC
:1009300051C0968DA685B785858591FF04C09C9191
:10094000892329F447C09C91892309F043C0A389D6
:10095000B4899C918589809589238C938689978910
:100960000197F1F7608D718DA685B785558538E0C3
:1009700020E0CB010197F1F7822F90E095958795C4
:10098000282F4C91452309F02068315091F7868D2E
:1009900081FD209580918E0190E001968F739927BB
:1009A00030918D01381749F0A0918E01B0E0AC5B19
:1009B000BE4F2C9380938E0103C0868D8160868FFD
:1009C000828D938D0197F1F7A389B4899C918589D4
:1009D000892B8C93FF91EF91BF91AF919F918F9154
:1009E0007F916F915F914F913F912F910F900FBE2B
:1009F0000F901F901895CF93DF931092940110924F
:100A0000930188EE93E0A0E0B0E08093950190938D
:100A10009601A0939701B09398012AE031E03093BA
:100A200092012093910125EC30E030939E012093B8
:100A30009D0124EC30E03093A00120939F0120EC35
:100A400030E03093A2012093A10121EC30E03093FB
:100A5000A4012093A30122EC30E03093A60120935F
:100A6000A50126EC30E03093A8012093A701109255
:100A7000AA011092AB011092AC011092AD0110923C
:100A80003102109230028093320290933302A0938D
:100A90003402B09335028CE191E090932F02809361
:100AA0002E021092450210924402109247021092B8
:100AB0004602109249021092480210924B02109284
:100AC0004A0260914C026E7F6D7F60934C02669586
:100AD000617081E0682783E00E949401E1EBF0E01F
:100AE0002491EDE9F0E08491882399F090E0880F5B
:100AF000991FFC01EA57FF4FA591B491FC01E458FE
:100B0000FF4F859194918FB7F894EC91E22BEC9381
:100B10008FBFE1EBF0E0E491E0933E02EDE9F0E01D
:100B2000E491F0E0EE0FFF1FE458FF4F85919491A0
:100B30009093400280933F02E0EBF0E02491ECE9D7
:100B4000F0E084918823C1F090E0880F991FFC01A8
:100B5000EA57FF4FC591D491FC01E458FF4FA5918E
:100B6000B4919FB7F8948881E22FE0958E23888313
:100B70008C91E823EC939FBF80914C0281FD04C0CF
:100B800061E082E00E94940182E080933A02E0EB0F
:100B9000F0E0E491E0933B02ECE9F0E0E491F0E076
:100BA000EE0FFF1FE057FF4F8591949190933D0208
:100BB00080933C02DF91CF910895CF93DF93CDB71F
:100BC000DEB7A4970FB6F894DEBF0FBECDBF789402
:100BD00084B5826084BD84B5816084BD85B5826042
:100BE00085BD85B5816085BD80916E0081608093F3
:100BF0006E0010928100809181008260809381005C
:100C0000809181008160809381008091800081606B
:100C1000809380008091B10084608093B1008091C6
:100C2000B00081608093B00080917A0084608093EE
:100C30007A0080917A00826080937A0080917A00B5
:100C4000816080937A0080917A00806880937A0036
:100C50001092C100E091A101F091A20182E0808395
:100C6000E0919D01F0919E011082E0919F01F09131
:100C7000A0018FEC80831092A901E091A501F09171
:100C8000A60186E08083E091A301F091A401808118
:100C900080618083E091A301F091A401808188604C
:100CA0008083E091A301F091A4018081806880831A
:100CB000E091A301F091A40180818F7D8083109247
:100CC0004902109248021092470210924602109276
:100CD0004502109244028DE991E090934B0280937B
:100CE0004A0290913A02963108F057C02DEB30E05D
:100CF00030934502209344022BE931E030934702C0
:100D0000209346022CE231E03093490220934802BE
:100D100020916800983050F031E09E3008F430E0C7
:100D200081E001C0880F3A95EAF701C084E0822B88
:100D300080936800983038F09E3040F0963148F04B
:100D400020E030E008C02DE630E005C02BE630E0C2
:100D500002C02CE630E030934202209341029830EA
:100D600030F481E001C0880F9A95EAF70EC0292F70
:100D700030E09E3018F42850310902C02E5031095D
:100D800081E001C0880F2A95EAF7809343028091A1
:100D90004A0290914B020197F1F78091480290919D
:100DA0004902892B21F180918F019091900122E0DD
:100DB0008E329207E1F0009711F00E94E5028091D7
:100DC0004C028E7F80934C0210928E0110928D0106
:100DD0008EE292E09093900180938F01E091410226
:100DE000F0914202908180914302892B80837E01A1
:100DF0008FE1E80EF11C6CE271E0C7010E94C803AC
:100E00001C8A1B8A1E8A1D8A188E1F8A4AE08E0140
:100E10000F5F1F4FB80182ED94E00E941808F8019F
:100E200001900020E9F73197AF01401B510BB80149
:100E3000CE0143960E94A7031A8E198E1C8E1B8E1C
:100E40001E8E1D8E81E389831A82F8010190002095
:100E5000E9F73197AF01401B510BB801CE0149961C
:100E60000E94A7031A8219821C821B821E821D8285
:100E7000698D7A8D6115710531F04D8D5E8DC801DA
:100E80000E94A70303C0C8010E947C036DE271E0C9
:100E9000C8010E948E036C014F89588D6B897C8933
:100EA0000E944E03811103C0C6010E947C036FE2C1
:100EB00071E0C6010E948E038E159F0579F0FC013A
:100EC000608171816115710531F044815581C701DF
:100ED0000E94A70303C0C7010E947C0389819A81F5
:100EE0000E944709898D9A8D0E9447098B899C89A8
:100EF0000E944709B70181E991E00E940A03B70106
:100F00008EE292E00E940A038F8D98A10E94470909
:100F10006CE271E0CE0143960E94C8036CE271E07E
:100F2000C8010E94C8038EE292E00E94AC02892BA5
:100F300029F48B899C890097E9F431C08EE292E014
:100F40000E94AC0218161906A4F78EE292E00E94E5
:100F5000C402898F1A8E41E050E0BE01675E7F4F68
:100F6000C8010E944E036AE070E080E090E00E94B9
:100F70000502E4CF69817A816115710571F04D89AF
:100F80005E892D813E814217530738F00E94B70ACF
:100F90008D819E81988F8F8B12C00E944709898115
:100FA0009A819C8B8B8B8B819C819E8B8D8B8D8171
:100FB0009E81988F8F8B1A8219821C821B821E82BF
:100FC0001D8289819A810E9447098F89988D892B7A
:100FD00061F0EB89FC898081882339F0BE016D5E68
:100FE0007F4F81E991E00E940A0342E150E061E312
:100FF00071E081E991E00E948E0081E991E00E9418
:10100000FF0268EE73E080E090E00E9405028B89A9
:101010009C890E9447090E948A017ACF8CE191E065
:1010200090932F0280932E028EE292E00C94E502C0
:10103000BB274A3031F4992322F4BDE29095819583
:101040009F4F0C942408BB27FB015527AA27880F24
:10105000991FAA1FA41710F0A41B83955051B9F72C
:10106000A05DAA3308F0A95DA193009779F7B111AB
:10107000B1931192CB010C943D08DC01FC01672F68
:1010800071917723E1F7329704C07C916D9370835F
:101090006291AE17BF07C8F308952F923F924F9207
:1010A0005F926F927F928F929F92AF92BF92CF92F8
:1010B000DF92EF92FF920F931F93CF93DF93CDB701
:1010C000DEB7CA1BDB0B0FB6F894DEBF0FBECDBF79
:1010D00009942A88398848885F846E847D848C844A
:1010E0009B84AA84B984C884DF80EE80FD800C8153
:1010F0001B81AA81B981CE0FD11D0FB6F894DEBF36
:101100000FBECDBFED01089597FB072E16F4009496
:1011100007D077FD09D00E94980807FC05D03EF45F
:10112000909581959F4F0895709561957F4F089593
:10113000AA1BBB1B51E107C0AA1FBB1FA617B707FD
:1011400010F0A61BB70B881F991F5A95A9F7809519
:101150009095BC01CD010895EE0FFF1F0590F4910D
:10116000E02D0994CF93DF938230910510F482E053
:1011700090E0E0914F02F091500220E030E0C0E0BA
:10118000D0E0309711F14081518148175907C0F0E4
:101190004817590761F482819381209719F09B8346
:1011A0008A832BC09093500280934F0226C0211552
:1011B000310519F04217530718F49A01BE01DF01F7
:1011C000EF010280F381E02DDCCF2115310509F11B
:1011D000281B390B2430310590F412968D919C9187
:1011E00013976115710521F0FB019383828304C07D
:1011F0009093500280934F02FD01329644C0FD014E
:10120000E20FF31F81939193225031092D933C9368
:101210003AC020914D0230914E02232B41F420918F
:1012200002013091030130934E0220934D02209130
:101230000001309101012115310541F42DB73EB770
:101240004091040150910501241B350BE0914D02A2
:10125000F0914E02E217F307A0F42E1B3F0B281764
:10126000390778F0AC014E5F5F4F2417350748F01F
:101270004E0F5F1F50934E0240934D028193919306
:1012800002C0E0E0F0E0CF01DF91CF9108950F932D
:101290001F93CF93DF93009709F48CC0FC01329722
:1012A0001382128200914F02109150020115110514
:1012B00081F420813181820F931F20914D02309162
:1012C0004E022817390779F5F0934E02E0934D024C
:1012D00071C0D80140E050E0AE17BF0750F412963D
:1012E0002D913C911397AD012115310509F1D901DB
:1012F000F3CF9D01DA013383228360817181860FF0
:10130000971F8217930769F4EC0128813981260F12
:10131000371F2E5F3F4F318320838A819B819383C8
:101320008283452B29F4F0935002E0934F0242C090
:101330001396FC93EE931297ED01499159919E01FA
:10134000240F351FE217F30771F480819181840F18
:10135000951F029611969C938E938281938113968A
:101360009C938E931297E0E0F0E0D80112968D9155
:101370009C911397009719F0F8018C01F6CF8D918D
:101380009C9198012E5F3F4F820F931F20914D0239
:1013900030914E022817390769F4309729F41092DA
:1013A000500210924F0202C01382128210934E021A
:1013B00000934D02DF91CF911F910F910895A0E00E
:1013C000B0E0E5EEF9E00C945108EC01009721F44F
:1013D000CB010E94B208B8C0FC01E60FF71F9C01C8
:1013E00022503109E217F30708F4ACC0D9010D917E
:1013F0001C91119706171707B0F00530110508F476
:101400009FC0C80104978617970708F499C0025037
:101410001109061B170B019311936D937C93CF0158
:101420000E9447098DC05B01A01AB10A4C01800ED1
:10143000911EA0914F02B091500240E050E0E12C8B
:10144000F12C109709F44AC0A815B905D1F56D9093
:101450007C901197630182E0C80ED11CCA14DB0492
:1014600080F1A3014A195B096A0182E0C80ED11C10
:101470001296BC9012971396AC91B5E0CB16D1049E
:1014800040F0B282A38351834083D9016D937C9352
:101490000AC00E5F1F4FC301800F911FF901918396
:1014A0008083EB2DFA2FE114F10431F0D70113966C
:1014B000FC93EE93129744C0F0935002E0934F02D6
:1014C0003FC08D919C9111974817590708F4AC01C2
:1014D0007D0112960D90BC91A02DB3CF80914D024D
:1014E00090914E0288159905E1F446175707C8F404
:1014F0008091000190910101009741F48DB79EB752
:101500004091040150910501841B950BE817F907E0
:10151000C8F4F0934E02E0934D02F90171836083A9
:101520000FC0CB010E94B2087C01009759F0A801BE
:10153000BE010E94AE0ACE010E944709C70104C045
:10154000CE0102C080E090E0CDB7DEB7EEE00C94B3
:101550006D0881E090E0F8940C94BE0AFB01DC0178
:1015600002C001900D9241505040D8F70895FB0100
:10157000DC0101900D920020E1F7089510E0C2E631
:10158000D0E004C0FE010E94AC082196C336D1070A
:06159000C9F7F894FFCF3B
:101596000000510280000000000021018E00B90009
:1015A6006801EA00C800DC000000000058028E0056
:1015B600FC025702AC02C4023F020D0A002C003B9B
:1015C600004920616D206B656570207275756E69C6
:0415D6006E6721001B
:107E0000112484B714BE81FFF0D085E080938100F7
:107E100082E08093C00088E18093C10086E0809377
:107E2000C20080E18093C4008EE0C9D0259A86E02C
:107E300020E33CEF91E0309385002093840096BBD3
:107E4000B09BFECF1D9AA8958150A9F7CC24DD24C4
:107E500088248394B5E0AB2EA1E19A2EF3E0BF2EE7
:107E6000A2D0813461F49FD0082FAFD0023811F036
:107E7000013811F484E001C083E08DD089C08234E0
:107E800011F484E103C0853419F485E0A6D080C0E4
:107E9000853579F488D0E82EFF2485D0082F10E0AE
:107EA000102F00270E291F29000F111F8ED06801E7
:107EB0006FC0863521F484E090D080E0DECF843638
:107EC00009F040C070D06FD0082F6DD080E0C81688
:107ED00080E7D80618F4F601B7BEE895C0E0D1E017
:107EE00062D089930C17E1F7F0E0CF16F0E7DF06D8
:107EF00018F0F601B7BEE89568D007B600FCFDCFD4
:107F0000A601A0E0B1E02C9130E011968C91119780
:107F100090E0982F8827822B932B1296FA010C0160
:107F200087BEE89511244E5F5F4FF1E0A038BF0790
:107F300051F7F601A7BEE89507B600FCFDCF97BE46
:107F4000E89526C08437B1F42ED02DD0F82E2BD052
:107F50003CD0F601EF2C8F010F5F1F4F84911BD097
:107F6000EA94F801C1F70894C11CD11CFA94CF0C13
:107F7000D11C0EC0853739F428D08EE10CD085E9AC
:107F80000AD08FE07ACF813511F488E018D01DD067
:107F900080E101D065CF982F8091C00085FFFCCF94
:107FA0009093C60008958091C00087FFFCCF809118
:107FB000C00084FD01C0A8958091C6000895E0E648
:107FC000F0E098E1908380830895EDDF803219F02E
:107FD00088E0F5DFFFCF84E1DECF1F93182FE3DFCA
:107FE0001150E9F7F2DF1F91089580E0E8DFEE27F6
:047FF000FF270994CA
:027FFE00040479
:0400000300007E007B
:00000001FF