:100000000C9463000C948B000C948B000C9468038C
:100010000C9468030C9468030C948B000C948B0074
:100020000C948B000C948B000C948B000C948B0024
:100030000C948B000C948B000C948B000C948B0014
:100040000C941E030C948B000C94EC020C94C602CE
:100050000C948B000C948B000C948B000C948B00F4
:100060000C948B000C948B0000000008000201002F
:100070000003040700000000000000000000000072
:10008000250028002B0000000000240027002A0083
:1000900000000000230026002900040404040404D6
:1000A0000404020202020202030303030303010227
:1000B00004081020408001020408102001020408F6
:1000C0001020E203060611241FBECFEFD8E0DEBFEA
:1000D000CDBF11E0A0E0B1E0E0EAFCE002C0059095
:1000E0000D92A832B107D9F722E0A8E2B1E001C031
:1000F0001D92A133B207E1F710E0C2E6D0E004C0E0
:100100002197FE010E943806C136D107C9F70E9427
:10011000C4040C9443060C940000CF92DF92EF923B
:10012000FF920F931F93CF93DF936C017A018B01A2
:10013000C0E0D0E0CE15DF0589F0D8016D918D01CA
:10014000D601ED91FC910190F081E02DC601099559
:10015000892B11F47E0102C02196ECCFC701DF91FB
:10016000CF911F910F91FF90EF90DF90CF90089566
:10017000FC01538D448D252F30E0842F90E0821BAD
:10018000930B541710F0CF96089501970895FC0132
:10019000918D828D981761F0828DDF01A80FB11DBE
:1001A0005D968C91928D9F5F9F73928F90E00895E2
:1001B0008FEF9FEF0895FC01918D828D981731F09C
:1001C000828DE80FF11D858D90E008958FEF9FEFF0
:1001D0000895FC01918D228D892F90E0805C9F4FC6
:1001E000821B91098F739927089585E791E00E94FA
:1001F000E90021E0892B09F420E0822F0895FC0119
:10020000848DDF01A80FB11DA35ABF4F2C91848D9F
:1002100090E001968F739927848FA689B7892C93D4
:10022000A089B1898C9180648C93938D848D98136F
:1002300006C00288F389E02D80818F7D8083089538
:10024000EF92FF920F931F93CF93DF93EC0181E026
:10025000888F9B8D8C8D981305C0E889F9898081E2
:1002600085FD24C0F62E0B8D10E00F5F1F4F0F731E
:100270001127E02E8C8DE8120CC00FB607FCFACFC8
:10028000E889F989808185FFF5CFCE010E94FF00C2
:10029000F1CF8B8DFE01E80FF11DE35AFF4FF08285
:1002A0000B8FEA89FB898081806207C0EE89FF8914
:1002B0006083E889F98980818064808381E090E0AF
:1002C000DF91CF911F910F91FF90EF900895CF9301
:1002D000DF93EC01888D8823C9F0EA89FB8980814E
:1002E00085FD05C0A889B9898C9186FD0FC00FB620
:1002F00007FCF5CF808185FFF2CFA889B9898C9161
:1003000085FFEDCFCE010E94FF00E7CFDF91CF91B7
:10031000089580E090E0892B29F00E94F50081117A
:100320000C940000089590E0FC01E859FF4F3491CF
:10033000FC01E255FF4F2491FC01E656FF4FE4918A
:10034000EE2309F43BC0332339F1333091F038F414
:100350003130A9F0323001F584B58F7D12C03730CD
:1003600091F03830A1F03430B9F4809180008F7D65
:1003700003C0809180008F77809380000DC084B58A
:100380008F7784BD09C08091B0008F7703C08091C2
:10039000B0008F7D8093B000F0E0EE0FFF1FE458B7
:1003A000FF4FA591B4918FB7F894EC91611103C000
:1003B00020952E2301C02E2B2C938FBF08953FB77D
:1003C000F89480916D0190916E01A0916F01B091B0
:1003D000700126B5A89B05C02F3F19F00196A11DFD
:1003E000B11D3FBFBA2FA92F982F8827820F911DCB
:1003F000A11DB11DBC01CD0142E0660F771F881F12
:10040000991F4A95D1F70895209173013091740195
:100410002817390771F49091710180917201981732
:1004200041F0E0917101F0E0E85DFE4F808190E0E5
:1004300008958FEF9FEF089508951F93CF93DF9353
:10044000DC015C962D913C915D972115310539F4C5
:1004500081E090E013969C938E9312973DC0519645
:10046000ED91FC91529750969C915097892F8095D1
:100470001FB75E964C915E9741FB772770F941FD5F
:100480006095F8944081772311F0492B01C04823EF
:100490004083E9012197F1F748E0508160FF02C0F5
:1004A000592B01C058235083E9012197F1F7669534
:1004B000415099F7772321F090818923808303C0ED
:1004C0008081982B90831FBF5C968D919C915D9746
:1004D0000197F1F721E030E0C901DF91CF911F9141
:1004E000089520917301309174012817390771F430
:1004F000809172012091710190E0805C9F4F821B7E
:10050000910960E470E00E941006089580E090E098
:100510000895209173013091740128173907B9F4B7
:100520009091710180917201981789F0E0917101A9
:10053000F0E0E85DFE4F80812091710130E02F5F97
:100540003F4F2F7333272093710190E008958FEF71
:100550009FEF0895E0917301F0917401E817F90796
:1005600069F4A389B4899C918589809589238C93AA
:10057000109274011092730181E0089580E0089553
:10058000089580E090E008950E943E061F920F9229
:100590000FB60F9211242F933F934F935F936F9356
:1005A0007F938F939F93AF93BF93EF93FF9385E7D1
:1005B00091E00E94FF00FF91EF91BF91AF919F9159
:1005C0008F917F916F915F914F913F912F910F90FC
:1005D0000FBE0F901F9018951F920F920FB60F929B
:1005E00011242F938F939F93EF93FF93E0918501B5
:1005F000F09186018081E0918B01F0918C0182FD68
:1006000012C0908180918E018F5F8F7320918F0136
:10061000821751F0E0918E01F0E0EB58FE4F958F7C
:1006200080938E0101C08081FF91EF919F918F9106
:100630002F910F900FBE0F901F9018951F920F9241
:100640000FB60F9211242F933F938F939F93AF93E5
:10065000BF938091690190916A01A0916B01B09163
:100660006C013091680123E0230F2D3720F40196AF
:10067000A11DB11D05C026E8230F0296A11DB11DC5
:10068000209368018093690190936A01A0936B01A4
:10069000B0936C0180916D0190916E01A0916F01FA
:1006A000B09170010196A11DB11D80936D019093D1
:1006B0006E01A0936F01B0937001BF91AF919F91B4
:1006C0008F913F912F910F900FBE0F901F90189513
:1006D0001F920F920FB60F9211242F933F934F93B7
:1006E0005F936F937F938F939F93AF93BF93EF939A
:1006F000FF93E0917301F0917401309709F451C0B8
:10070000968DA685B785858591FF04C09C91892328
:1007100029F447C09C91892309F043C0A389B48977
:100720009C918589809589238C93868997890197E7
:10073000F1F7608D718DA685B785558538E020E08D
:10074000CB010197F1F7822F90E095958795282F9F
:100750004C91452309F02068315091F7868D81FD39
:1007600020958091720190E001968F7399273091C6
:100770007101381749F0A0917201B0E0A85DBE4F39
:100780002C938093720103C0868D8160868F828D49
:10079000938D0197F1F7A389B4899C918589892B61
:1007A0008C93FF91EF91BF91AF919F918F917F912A
:1007B0006F915F914F913F912F910F900FBE0F90CE
:1007C0001F901895CF93DF931092780110927701C4
:1007D00088EE93E0A0E0B0E08093790190937A01F5
:1007E000A0937B01B0937C0124E031E0309376014B
:1007F0002093750125EC30E0309382012093810134
:1008000024EC30E0309384012093830120EC30E02D
:10081000309386012093850121EC30E030938801EC
:100820002093870122EC30E030938A0120938901E4
:1008300026EC30E030938C0120938B0110928E01D6
:1008400010928F0110929001109291011092150256
:10085000109214028093160290931702A09318022C
:10086000B093190286E191E09093130280931202F3
:10087000109229021092280210922B0210922A0242
:1008800010922D0210922C0210922F0210922E0222
:10089000609130026E7F6D7F60933002669561706B
:1008A00081E0682783E00E949301E1EBF0E024916E
:1008B000EDE9F0E08491882399F090E0880F991F8A
:1008C000FC01EA57FF4FA591B491FC01E458FF4F9A
:1008D000859194918FB7F894EC91E22BEC938FBFB4
:1008E000E1EBF0E0E491E0932202EDE9F0E0E49145
:1008F000F0E0EE0FFF1FE458FF4F85919491909325
:10090000240280932302E0EBF0E02491ECE9F0E094
:1009100084918823C1F090E0880F991FFC01EA5769
:10092000FF4FC591D491FC01E458FF4FA591B491BC
:100930009FB7F8948881E22FE0958E2388838C916D
:10094000E823EC939FBF8091300281FD04C061E0F9
:1009500082E00E94930182E080931E02E0EBF0E0CF
:10096000E491E0931F02ECE9F0E0E491F0E0EE0F97
:10097000FF1FE057FF4F8591949190932102809340
:100980002002DF91CF910895789484B5826084BD70
:1009900084B5816084BD85B5826085BD85B5816083
:1009A00085BD80916E00816080936E001092810001
:1009B00080918100826080938100809181008160BC
:1009C000809381008091800081608093800080917D
:1009D000B10084608093B1008091B0008160809309
:1009E000B00080917A00846080937A0080917A00D0
:1009F000826080937A0080917A00816080937A008F
:100A000080917A00806880937A001092C100E09112
:100A10008501F091860182E08083E0918101F0916F
:100A200082011082E0918301F09184018FEC808338
:100A300010928D01E0918901F0918A0186E0808316
:100A4000E0918701F0918801808180618083E0914D
:100A50008701F0918801808188608083E09187011F
:100A6000F0918801808180688083E0918701F09116
:100A7000880180818F7D808310922D0210922C023C
:100A800010922B0210922A02109229021092280230
:100A90008DE991E090932F0280932E0290911E0297
:100AA000963108F057C02DEB30E0309329022093A7
:100AB00028022BE931E030932B0220932A022CE20A
:100AC00031E030932D0220932C0220916800983061
:100AD00050F031E09E3008F430E081E001C0880F32
:100AE0003A95EAF701C084E0822B80936800983041
:100AF00038F09E3040F0963148F020E030E008C0F9
:100B00002DE630E005C02BE630E002C02CE630E0F8
:100B10003093260220932502983030F481E001C002
:100B2000880F9A95EAF70EC0292F30E09E3018F40E
:100B30002850310902C02E50310981E001C0880FD0
:100B40002A95EAF78093270280912E0290912F0236
:100B50000197F1F780912C0290912D02892B21F1C0
:100B6000809173019091740122E082319207E1F04B
:100B7000009711F00E94AA02809130028E7F80932C
:100B80003002109272011092710182E192E0909312
:100B9000740180937301E0912502F0912602908107
:100BA00080912702892B808342E050E064E271E06B
:100BB00082E192E00E948D000E94DF014B015C0106
:100BC00088EEC82E83E0D82EE12CF12C0E94DF01A4
:100BD000DC01CB0188199909AA09BB09883E934019
:100BE000A105B10558F081E0C81AD108E108F10863
:100BF00028EE820E23E0921EA11CB11CC114D10468
:100C0000E104F10419F70E948901CECF86E191E059
:100C1000909313028093120282E192E00C94AA0254
:100C200097FB072E16F4009407D077FD09D00E9499
:100C3000240607FC05D03EF4909581959F4F0895BA
:100C4000709561957F4F0895AA1BBB1B51E107C0AA
:100C5000AA1FBB1FA617B70710F0A61BB70B881F4C
:100C6000991F5A95A9F780959095BC01CD010895DB
:100C7000EE0FFF1F0590F491E02D099481E090E0C4
:100C8000F8940C94430610E0C2E6D0E004C0FE01E4
:100C90000E9438062196C336D107C9F7F894FFCFD2
:100CA0000000000020018D00B8006701E900C700C6
:100CB000DB00000000001D028D00C1021C02710259
:080CC00089020402410A000050
:107E0000112484B714BE81FFF0D085E080938100F7
:107E100082E08093C00088E18093C10086E0809377
:107E2000C20080E18093C4008EE0C9D0259A86E02C
:107E300020E33CEF91E0309385002093840096BBD3
:107E4000B09BFECF1D9AA8958150A9F7CC24DD24C4
:107E500088248394B5E0AB2EA1E19A2EF3E0BF2EE7
:107E6000A2D0813461F49FD0082FAFD0023811F036
:107E7000013811F484E001C083E08DD089C08234E0
:107E800011F484E103C0853419F485E0A6D080C0E4
:107E9000853579F488D0E82EFF2485D0082F10E0AE
:107EA000102F00270E291F29000F111F8ED06801E7
:107EB0006FC0863521F484E090D080E0DECF843638
:107EC00009F040C070D06FD0082F6DD080E0C81688
:107ED00080E7D80618F4F601B7BEE895C0E0D1E017
:107EE00062D089930C17E1F7F0E0CF16F0E7DF06D8
:107EF00018F0F601B7BEE89568D007B600FCFDCFD4
:107F0000A601A0E0B1E02C9130E011968C91119780
:107F100090E0982F8827822B932B1296FA010C0160
:107F200087BEE89511244E5F5F4FF1E0A038BF0790
:107F300051F7F601A7BEE89507B600FCFDCF97BE46
:107F4000E89526C08437B1F42ED02DD0F82E2BD052
:107F50003CD0F601EF2C8F010F5F1F4F84911BD097
:107F6000EA94F801C1F70894C11CD11CFA94CF0C13
:107F7000D11C0EC0853739F428D08EE10CD085E9AC
:107F80000AD08FE07ACF813511F488E018D01DD067
:107F900080E101D065CF982F8091C00085FFFCCF94
:107FA0009093C60008958091C00087FFFCCF809118
:107FB000C00084FD01C0A8958091C6000895E0E648
:107FC000F0E098E1908380830895EDDF803219F02E
:107FD00088E0F5DFFFCF84E1DECF1F93182FE3DFCA
:107FE0001150E9F7F2DF1F91089580E0E8DFEE27F6
:047FF000FF270994CA
:027FFE00040479
:0400000300007E007B
:00000001FF